:020000040001F9
:10C00000104C002039C5010041C5010043C50100A5
:10C0100045C5010047C5010049C5010000000000F9
:10C020000000000000000000000000004BC50100FF
:10C030004DC50100000000004FC5010051C50100C1
:10C0400053C5010053C5010005D0010035CD0100E5
:10C0500053C5010053C5010065CB010053C5010064
:10C0600053C5010053C5010053C5010053C501006C
:10C0700053C5010053C5010053C5010053C501005C
:10C0800053C5010011CD010053C5010053C5010086
:10C0900071CD010053C5010075CD010053C50100EC
:10C0A00053C5010053C5010053C5010053C501002C
:10C0B00053C5010053C5010000000000000000004E
:10C0C00053C5010053C5010053C5010053C501000C
:10C0D00053C5010053C5010053C501000000000015
:10C0E0000000000000000000000000000000000050
:10C0F0000000000000000000000000000000000040
:10C10000000000000000000000000000000000002F
:10C11000000000000000000000000000000000001F
:10C40000DFF80CD000F0F0FA00480047450D0200BC
:10C41000104C0020401E00BF00BF00BF00BF00BF87
:10C4200000BF00BF00BF00BF00BF00BF00BF00BF14
:10C4300000BF00BF00BF00BF00BF00BF00BF00BF04
:10C4400000BF00BF00BF00BF00BF00BF00BF00BFF4
:10C4500000BF00BF00BF00BF00BF00BF00BF00BFE4
:10C4600000BF00BF00BF00BF00BF00BF00BF00BFD4
:10C4700000BF00BF00BF00BF00BF00BF00BF00BFC4
:10C4800000BF00BF00BFC5D170470000401E00BF05
:10C4900000BF00BF00BF00BF00BF00BF00BF00BFA4
:10C4A00000BF00BF00BF00BF00BF00BF00BF00BF94
:10C4B00000BF00BF00BF00BF00BF00BF00BF00BF84
:10C4C00000BF00BF00BF00BF00BF00BF00BF00BF74
:10C4D00000BF00BF00BF00BF00BF00BF00BF00BF64
:10C4E00000BF00BF00BF00BF00BF00BF00BF00BF54
:10C4F00000BF00BF00BF00BF00BF00BF00BFC5D16D
:10C5000070470000056885F308884068FF2464B21E
:10C51000EFF30585002D01D1A646004725460646C6
:10C5200021273FBAF0B40024002500260027F0B4EC
:10C53000F92040B2004700000648804706480047FF
:10C54000FEE7FEE7FEE7FEE7FEE7FEE7FEE7FEE7C3
:10C55000FEE7FEE799CD010001C4010010B5431AC2
:10C56000934209D28318881803E010F8011D03F8DC
:10C57000011D521EF9D210BD40EA01039B0703D0F2
:10C5800009E008C9121F08C0042AFAD203E011F812
:10C59000013B00F8013B521EF9D210BDD2B201E0BE
:10C5A00000F8012B491EFBD270470022F6E710B5B8
:10C5B00013460A4604461946FFF7F0FF204610BD11
:10C5C000421C10F8011B0029FBD1801A704730B5BE
:10C5D00004460020034600E05B1C934203D2E05C6B
:10C5E000CD5C401BF8D030BD30B50B460146002075
:10C5F0002022012409E021FA02F59D4205D303FA25
:10C6000002F5491B04FA02F52844151EA2F10102A5
:10C61000F1DC30BD2DE9F05F0546002092469B46D7
:10C6200088460646814640241BE028464146474648
:10C63000224600F0FAF953465A46C01A914110D3E7
:10C6400011461846224600F0E1F92D1A67EB010861
:10C650004F4622460120002100F0D8F917EB0009CF
:10C660004E41201EA4F10104DFDC484631462A4633
:10C670004346BDE8F09F2DE9FE4F804681EA030066
:10C68000C00F0C46009021F0004123F00045B8EBAC
:10C690000200A94105D24046214690461C460B4661
:10C6A000024623F00040104347D0270DC7F30A008D
:10C6B000C3F30A510290401A019040286BDAC3F389
:10C6C000130040F4801B0098924620B10023D2EB67
:10C6D000030A63EB0B0B01985946C0F14002504628
:10C6E00000F094F906460D4650465946019A00F06E
:10C6F000ACF910EB08006141002487EA115284EA8A
:10C70000E7731A4340D0009A62B3019A012A4FEAB4
:10C71000075215DC001B61EB02014FF0004202EAF8
:10C720000752CDE90042001C41F5801132462B46EC
:10C7300000F0ACF903B0BDE8F08F40462146F9E7C0
:10C74000001B61EB0201001C41F5801300185B41E6
:10C750002018A2F5001747EB030140EAD570B6197F
:10C760006D4111E06D084FEA360645EAC0754FEAA3
:10C770000752001B61EB0201001C41F580114908C2
:10C780004FEA30000019514132462B4603B0BDE854
:10C79000F04F00F06CB90098012240000023D0EB6C
:10C7A000020263EBE073009821464FEAE074B8EBB5
:10C7B000000061EB0401E9E783F000435BE781F0EF
:10C7C000004158E72DE9FE4F81EA030404F00044DC
:10C7D00021F0004100944FF0000B23F0004350EA99
:10C7E00001045ED052EA03045BD0C3F30A54C1F3E0
:10C7F0000A552C44A4F2F3340194A0FB0254C1F373
:10C80000130141F48011C3F3130343F4801301FBBC
:10C81000024400FB034E840A970A44EA815447EA23
:10C820008357A4FB076802958D0A05FB07854FEA2D
:10C83000932C04FB0C542705029D4FEA065847EA47
:10C840001637B5EB08056EEB070C870E920E47EA1C
:10C85000811742EA8312A7FB0201B6EB0B0164EBDE
:10C8600000042B0D43EA0C335E1844EB1C50DA46EF
:10C870005146E7FB0201C5F313044FEA0B3343EAC9
:10C8800014534FEA0432019C43EA0603A4F10C045A
:10C890000294009CCDE900B400F0F8F803B0BDE8C4
:10C8A000F08F00200146F9E72DE9F04D81EA0304FD
:10C8B00004F0004B21F0004514464FF0000A23F02D
:10C8C000004150EA050220D054EA01021DD0C5F310
:10C8D0000A570246C5F31303C1F31300C1F30A5606
:10C8E00040F4801543F48013A7EB0608101BD646CE
:10C8F00008F2FD3873EB050002D308F1010801E0EE
:10C9000092185B41B8F1000F03DA00200146BDE840
:10C91000F08D00204FF48011064684460EE0171B70
:10C9200073EB050705D3121B63EB050306434CEAC3
:10C93000010C49084FEA300092185B4150EA0107A8
:10C94000EDD152EA030012D082EA040083EA050125
:10C95000084305D0101BAB4106D20122002306E09C
:10C9600000224FF0004302E06FF0010253101AEB77
:10C9700006004CEB085110EB0A0041EB0B01BDE83F
:10C98000F04D00F074B8C1F30A52C1F3130140F244
:10C99000FF3341F480119A4202DA002001467047C9
:10C9A00040F233439A42A2F2334202DC524200F098
:10C9B0003CB800F02BB8000030B5041E71F1000443
:10C9C00004DB4FF00044404264EB0101141E73F19C
:10C9D000000405DB1C464FF00043524263EB0403A6
:10C9E000994208BF904230BD064C074D06E0E06812
:10C9F00040F0010394E8070098471034AC42F6D3A6
:10CA0000FFF702FD1829020038290200202A04DB62
:10CA1000203A00FA02F1002070479140C2F1200351
:10CA200020FA03F3194390407047202A04DB203A90
:10CA300021FA02F00021704721FA02F3D040C2F13E
:10CA400020029140084319467047202A06DBCB1785
:10CA5000203A41FA02F043EAE07306E041FA02F3B9
:10CA6000D040C2F12002914008431946704710B5EA
:10CA7000141E73F1000408DA401C41F10001921801
:10CA80005B411A4301D120F0010010BD2DE9F04DAA
:10CA900092469B4611B1B1FA81F202E0B0FA80F2FF
:10CAA00020329046FFF7B2FF04460F4640EA0A00E4
:10CAB00041EA0B0153465A46084313D0114653EA44
:10CAC000010019D0C8F140025046FFF7AEFF0546FD
:10CAD0000E46504659464246FFF798FF084305D098
:10CAE000012004E020463946BDE8F08D00200543D2
:10CAF00046EAE0762C4337430A986305E40AA0EB44
:10CB000008000022FD0A44EA47540A3002D50020FA
:10CB10000146E9E7010510196941DDE908450019F9
:10CB20006941BDE8F04DA2E730B58C1810F8012B33
:10CB300012F00F0301D110F8013B120906D110F8D1
:10CB4000012B03E010F8015B01F8015B5B1EF9D1DA
:10CB500001E001F8013B521EFBD1A142E6D30020C7
:10CB600030BD00002DE9FC5F0025DFF83491A846B8
:10CB70004FF4807601242F46304604F00BFC38B188
:10CB8000D9F80403204203D0304604F0F9FB2543D2
:10CB9000361D64007F1CB6B2082FEDD34FF4BE746F
:10CBA000204604F0F7FB38B1204604F0E9FB3D488D
:10CBB00045F00045D0F800803B4E15F0FF0F14D033
:10CBC000012700242F420CD009EB8401D1F8100575
:10CBD000D1F81015C0F3042056F82420C1F3014108
:10CBE00090477F00641C082CECD3002D56DA0020FF
:10CBF0000190401E4CE0701910F8501F90F9000091
:10CC000021F0C004401C38D0012000FA04FA1AEACE
:10CC1000090F32D04FEA911B204602F0A3F956F8D3
:10CC20002000009010B9BBF1030F26D15146BBF193
:10CC3000030F02D1019808430190A00000F1A04029
:10CC4000D0F800071AEA080FC0F3014002D002280A
:10CC500002D012E0032810D1BBF1030F07D1022844
:10CC60001AD00221204604F074FB7F1CFFB200980A
:10CC700018B1009A5946204690476D1C042DBAD32E
:10CC8000002F0BD007480068404507D08046019828
:10CC9000002781463D46AEE70321E3E7BDE8FC9F60
:10CCA00000600040100500504028002000F01F02E6
:10CCB000012191404009800000F1E020C0F880127D
:10CCC000704700F01F02012191404009800000F1EF
:10CCD000E020C0F80011704700F01F0201219140D0
:10CCE0004009800000F1E020C0F8001270474907B9
:10CCF000090E002806DA00F00F0000F1E02080F8AD
:10CD0000141D704700F1E02080F800147047000007
:10CD100007480021C0F84011C0F84411C0F848117C
:10CD2000C0F84C11C0F80011C0F8041105F0F8BAB1
:10CD30000010014070B50D480B4C05464FF48C7146
:10CD400004F030FB00280ED00026C5F81861A07E44
:10CD5000FF2801D004F00CFB66762671201D2168A7
:10CD6000BDE87040084770BD2C2B0020003000400B
:10CD700005F072BA074810B5406830B18047002806
:10CD800007D0BDE8104000F077BFBDE8104003F0C9
:10CD900073BE10BDC421002070B58D480023021D54
:10CDA0000178101D0124062907D115782D0704D11B
:10CDB0000578C5F30315032D02D0062904D00FE032
:10CDC000854E844D75670EE015782D0708D10578DE
:10CDD000C5F30315032D06D0042D04D0052D02D074
:10CDE000062909D010E04FF08055D5F844527B4E0B
:10CDF000C5F34235356002E015782D0704D105787A
:10CE0000C5F30315032D02D0062906D011E0744D99
:10CE10002E6826F080762E600EE015782D0708D15A
:10CE20000578C5F30315032D06D0042D04D0052D78
:10CE300002D006290AD011E04FF08045C5F80C3128
:10CE4000C5F81031654D2D1F2B6002E015782D07B8
:10CE500004D10578C5F30315032D02D0062905D0AA
:10CE60000CE05E4A0321643211600AE015782D0758
:10CE700004D10578C5F30315032D02D006290DD082
:10CE80006AE0584A05211160564978310C605549CD
:10CE900008310B603F21121D116002E01178090773
:10CEA0005AD10078C0F30310052855D14E480068C8
:10CEB0004E4908604C48001D0068091D08604A483A
:10CEC00008300068091D086047480C300068091DDB
:10CED0000860454810300068091D08604248143059
:10CEE0000068091D08604048183000683F4920313B
:10CEF00008603D481C300068091D08603A48203031
:10CF00000068091D0860384824300068091D086061
:10CF1000354828300068091D086033482C30006807
:10CF2000091D0860304830300068304940310860E1
:10CF30002D4834300068091D08602B4838300068DF
:10CF4000091D086028483C300068091D0860264813
:10CF500040300068091D086021487438016841F4B8
:10CF600070010160BFF34F8FBFF36F8F4FF010213F
:10CF7000D1F80002002803DBD1F80402002822DAED
:10CF80001B4A14601B480468002CFCD01524C1F80F
:10CF900000420568002DFCD0C1F804420168002958
:10CFA000FCD0136001680029FCD0BFF34F8F0C4800
:10CFB000F0380168104A01F4E06111430160BFF3E9
:10CFC0004F8F00BFFDE70E490C48086070BD0000A0
:10CFD000E00F00F00DF0ADBA00C007403C05004086
:10CFE000FCED00E0105600400404001020C5004095
:10CFF00004E5014000E401400400FA050090D0037C
:10D00000D82100200348007F08B105F0C5BA05F01B
:10D010003FBA0000982800200FB4084B10B504A9AF
:10D0200002AA039800F0CEF8044602A9002000F0FE
:10D0300060FC204610BC5DF814FB0000F3D8010032
:10D0400002E008C8121F08C1002AFAD170477047D1
:10D05000002001E001C1121F002AFBD1704700002F
:10D060002DE9FF5FDDE90220010DDDF838B0024354
:10D0700018D044F61050A1F2FF3141430D140F981F
:10D08000012820D0A5EB0B00401C5FEA000A4FF0FE
:10D090000004474EDFF81C91A046504616D5CAF151
:10D0A000000728E00F98012443A2012808D000219E
:10D0B00000980F9BC0E90021C0E90243BDE8FF9F33
:10D0C0006FEA0B01F4E7CBF10000DEE7074612E060
:10D0D000F80707D02246334640464946FFF772FB21
:10D0E000804689462246334610461946FFF76AFBBA
:10D0F00004460E467F10002FEAD1DDE90201BAF1A5
:10D10000000F42464B4602DAFFF75CFB01E0FFF7F7
:10D11000CBFB04460E460022284BFFF74DFC03D8FC
:10D120004FF0FF30014607E00022254B20463146F4
:10D13000FFF7A1FAFFF727FC102409E0002C0ADB17
:10D140000A220023FFF766FA019B30321A55641E4B
:10D1500050EA0102F2D1641C019AC4F11103144493
:10D160000F9A012A03D0012208430DD10AE0084397
:10D1700004D000204FF0110B0F9080E7A3EB0B05BC
:10D180006D1E0DE05B4504DD4FF0000205F1010569
:10D1900004E003DA4FF00002A5F10105002AECD00B
:10D1A00000980F99C0E90231C0E9004586E7000008
:10D1B000000024400000F03F300000000000F04379
:10D1C0000000E03F2DE9FF4F95B09B46894606469B
:10D1D00000250FE2252877D100242746F84A0121AF
:10D1E000059400E0044316F8013F203B01FA03F0E8
:10D1F0001042F7D130782A2811D06FF02F03307801
:10D20000A0F13002092A16D8059A44F0020402EB74
:10D21000820203EB42021044761C0590EFE759F8B6
:10D22000042B0592002A03DA504244F4005405907E
:10D2300044F00204761C30782E2816D116F8010F1F
:10D2400044F004042A280DD06FF02F023078A0F1AA
:10D250003003092B09D807EB870302EB4303C718F8
:10D26000761CF3E759F8047B761C30786C280FD0D5
:10D2700006DC4C2817D068280DD06A2814D104E0A9
:10D28000742810D07A280FD10DE044F400140AE07D
:10D2900044F4801401E044F440147278824202D1D4
:10D2A00004F58014761C761C307866280BD013DCCD
:10D2B000582877D009DC002875D04528F6D04628B4
:10D2C000F4D047281AD19DE118E0632835D06428AE
:10D2D00079D0652812D195E1702873D008DC6728D1
:10D2E000F1D069286FD06E280DD06F2806D1B5E037
:10D2F00073282CD0752875D0782874D05A46179981
:10D3000090476D1C75E1C4F30250022809D0032830
:10D310000DD0D9F8001004280DD00D6009F10409D2
:10D3200067E1D9F80010EA17C1E90052F6E7D9F829
:10D3300000100D80F2E70D70F0E719F8041B8DF86E
:10D34000001000208DF80100EA46012003E059F8A2
:10D3500004AB4FF0FF3061074FF0000102D40DE045
:10D3600008F101018846B9420FDA8045F8DB1AF866
:10D3700008100029F4D108E008F101018846814233
:10D38000FADB1AF808100029F6D105985B46A0EBE5
:10D39000080721463846179A00F094FA284400EB13
:10D3A000080507E04DE029E10DE01AF8010B5A46A7
:10D3B00017999047B8F10108F7D25B4621463846E5
:10D3C000179A13E142E00A220092C4F302524FF08E
:10D3D000000A022A08D059F804CB032A4FEAEC715C
:10D3E0000AD00DE029E02AE009F1070121F0070247
:10D3F000F2E802C1914609E00FFA8CFC4FEAEC71A9
:10D40000042A03D14FFA8CFC4FEAEC71002907DAA9
:10D410000A460021DCF1000C61EB02012D2202E042
:10D42000220504D52B228DF80420012203E0E20717
:10D4300001D02022F7E7904659E00A2102E01022AD
:10D440000DE010214FF0000A00910BE010224FF088
:10D45000000A44F004040827009203E008224FF079
:10D46000000A0092C4F30252022A05D059F804CBF4
:10D470000021032A08D009E009F1070121F0070281
:10D48000F2E802C1914605E01FFA8CFC042A01D1A2
:10D490000CF0FF0C4FF00008220728D5702806D0AA
:10D4A000009B83F0100353EA0A0305D00EE04022EC
:10D4B0008DF80420012208E05CEA010206D0302247
:10D4C0008DF804208DF8050002229046009B83F021
:10D4D000080353EA0A030AD15CEA010201D1620798
:10D4E00005D530228DF804204FF001087F1E582802
:10D4F00004D034A003900EA802900DE036A0F9E706
:10D5000053466046009AFFF785F884460398825C8C
:10D510000298401E029002705CEA0100F0D102986D
:10D5200006A9081A00F1200A600702D524F4803405
:10D5300000E00127574502DDA7EB0A0000E00020CC
:10D5400000EB0A01009005984144401A0590E00361
:10D5500006D45B462146179A059800F0B3F90544B6
:10D56000002706E001A85A46C05D179990476D1C38
:10D570007F1C4745F6DBE0030CD55B462146179A36
:10D58000059800F09FF9054404E030205A461799A9
:10D5900090476D1C0099481E00900029F5DC08E0BA
:10D5A000029802995A460078491C029117999047AF
:10D5B0006D1CBAF10001AAF1010AF1DC65E100007D
:10D5C0000928010030313233343536373839616259
:10D5D000636465660000000030313233343536371D
:10D5E00038394142434445460000000000F058F9F4
:10D5F0000544761C307800287FF4ECAD19B028463D
:10D60000BDE8F08F620700D4062709F1070222F077
:10D61000070CFCE80223E14603F000485FEA080C2F
:10D6200002D00FF2702C0DE05FEA045C02D50FF21D
:10D63000682C07E05FEAC47C02D00FF2602C01E0A6
:10D64000AFF2700C4FF0FF3823F00043CDF850C01C
:10D6500065280CD006DC452809D046281DD047286F
:10D660003DD13DE0662818D067287ED138E0002102
:10D67000112F01DB112000E0781CCDE9000106A983
:10D680000EA8FFF7EDFCDDE90F010E9A03910021D2
:10D69000009207F1010A04914DE04FF0004000971D
:10D6A000CDE9011006A90EA8FFF7DAFCDDE90F02AB
:10D6B00003920E9B11990022DDF80CA000930492B6
:10D6C00011B9791C00EB010AB7EB0A0004D4C0F1D0
:10D6D000FF3007F1010A0490AAEB0700019044E033
:10D6E000012F00DA01270021112F01DD112000E0B8
:10D6F0003846CDE9000106A90EA8FFF7B1FCDDE927
:10D700000F010E9A0391002104910092BA4621075D
:10D710000CD40399514500DA8A46BAF1010F05DDB0
:10D72000009AAAF10101515C302908D0B84202DA0E
:10D7300010F1040F06DA0121CDE9011015E0AAF17C
:10D740000101E9E7002805DC049901440491AAEBF2
:10D75000000102E0411C514500DD8A460499401A4F
:10D76000401C01904FF000400290200704D4019823
:10D77000504501DBCDF8048000208DF84F00029861
:10D780000DF14F07B0F1004F25D02B200E900298DD
:10D790004FF0020800280CDA404202902D200E9033
:10D7A00007E00A210298FEF71FFF3031029007F8C8
:10D7B000011DB8F10001A8F10108F2DC029800286F
:10D7C000EFD1791E0E980870307800F0200040F0FC
:10D7D000450007F8020D12A8C01B00F107081498B5
:10D7E000007800B1012000EB0A01019801EBE07123
:10D7F00005984144401A401E0590E00306D45B465C
:10D800002146179A059800F05DF8054414980078B1
:10D8100018B15A46179990476D1CE00324D55B4612
:10D820002146179A059800F04DF805441CE004982D
:10D83000002807DBDDE90301884203DD0098405C36
:10D84000179901E0179930205A469047049805F13E
:10D850000105401C04900198401E019004D12E2027
:10D860005A46179990476D1CBAF10001AAF1010AB6
:10D87000DDDC05E017F8010B5A46179990476D1C3F
:10D88000B8F10001A8F10108F4DC5B462146179AC3
:10D890000598ABE62D0000002B00000020000000E2
:10D8A0002DE9F041044600251E461746880404D49D
:10D8B00005E039462020B0476D1C641EF9D5284686
:10D8C000BDE8F0812DE9F041044600251E46904652
:10D8D000C80301D5302700E02027880404D505E0DF
:10D8E00041463846B0476D1C641EF9D52846BDE850
:10D8F000F0810A68531C0B60107070472DE9FC5FC3
:10D900000025168807461580406B14468946A846B0
:10D910004FF00C0A11234FF0020B98B101784846E2
:10D92000032E48D380F800B02288521C92B2228085
:10D9300083542288521C92B2228009F80210208857
:10D94000401C20803A6BDAB12088494600F112056C
:10D95000B54230D80B5420881023401C80B2208060
:10D960000B542088401C20800F202388155C401E0B
:10D97000CD54238840B25B1C23800028F5DA45464D
:10D9800097F82E0030B133462246494603F0E2F8BC
:10D99000050011D197F82D0030B132462146484696
:10D9A00000F016FD050007D1B87820B32088C846DE
:10D9B000001DB04202D95046BDE8FC9F684679DFA1
:10D9C0000028F9D12188032008F8010020881921B6
:10D9D000401C80B2208008F800102088401C80B2D3
:10D9E000208000EB0801BDF8000004F041FE014674
:10D9F000208808442080F878B8B1228897F903106D
:10DA0000D31C4846B342D6D800F802B0228801237E
:10DA1000521C92B2228083542288521C92B22280DD
:10DA200009F802102088401C20807868B8B121884D
:10DA300090F90020CB1C4846B342BCD800F801B096
:10DA400021880A23491C89B2218043542188491C1A
:10DA500089B2218009F801202088401C2080388963
:10DA600050B1CDE900464B460622022107F10800DD
:10DA700004F071FE05009FD1388A50B1CDE900460F
:10DA80004B460722032107F1100004F064FE050055
:10DA900092D1388B50B1CDE900464B461522142166
:10DAA00007F1180004F057FE050085D1386A30B13F
:10DAB00033462246494601F005FC0500DBD1786A71
:10DAC00030B133462246494603F0CEF90500D2D1A3
:10DAD00097F82C0038B1334622464946384604F0C0
:10DAE000C7F80500C7D1387838B1334622464946D1
:10DAF000384603F0EBF90500BDD128465CE710B5C8
:10DB000001220221002001F047F808B1072810D1B6
:10DB100007220221012001F03FF808B1072808D1AF
:10DB200000210A22084601F037F808B1072800D181
:10DB3000002010BD064800684FF40021044A8143CC
:10DB4000121D1160111D00F40020086070470000D4
:10DB50000405005070B50024064D06E068680121F8
:10DB600010F8340003F030FA641C28788442F5D3AE
:10DB7000002070BD88210020F8B515460C460646E9
:10DB8000052A01D20720F8BD03F000FB18B903F005
:10DB9000D3FA0028F7D1104900204E600C70C1E97B
:10DBA00002500E4D08610DE006EBC400696800915B
:10DBB00081788DF801100078094A694603F056FA19
:10DBC0000028E0D1641EE4B2EED2BDE8F840054A78
:10DBD0000021024800F08AB88821002010290200A4
:10DBE0001508020015F501003EB504460420019019
:10DBF000174802906946204601F048FF38B1A0F569
:10DC00000041403902D000BF00F036F83EBD104858
:10DC10000838017AC90715D04FF6FF720C214088E9
:10DC2000A7DF78B1A0F5405102390BD0082809D000
:10DC3000891E07D0112805D043F20141884201D046
:10DC400000F01AF8204601F0D7FE0028DCD13EBDD6
:10DC500088200020BFF34F8F05480168054A01F472
:10DC6000E06111430160BFF34F8F00BFFDE700008B
:10DC70000CED00E00400FA050EB500210091CDE99D
:10DC800001106A4644F20100FFF7E4FF0EBD0000F8
:10DC9000014B1B68184700001C28002038B50C46B3
:10DCA000074BA268097802EB420253F82250054A5A
:10DCB000126A0092024604F108002369A84738BDA1
:10DCC000142B002064210020074910B50A7802EBCC
:10DCD000820201EB8201091DFFF7E0FFBDE8104061
:10DCE000042004F023B90000B8280020074B9B68EB
:10DCF00023B12AB120B10068037C1BB10820704712
:10DD00000720704741744261002070479C21002029
:10DD10002DE9F0478046994614460F4690074FF08C
:10DD2000000634D11C4D8CB303F0A2FE0320C5F8CD
:10DD30001490287004F11800002107EB4703AC6031
:10DD400004EBC102491C167056709770506000EBCE
:10DD5000C3000329F4DBEE606E70AE701420FEF792
:10DD6000A5FF06211420FEF7C2FF1420FEF7A9FF2D
:10DD70000A49C1F8008006211120FEF7B8FF0748C4
:10DD8000001F006828610020BDE8F08701E007203F
:10DD9000FAE7AE60FBE700009C2100200815014077
:10DDA0002DE9F843DFF870900D461746D9F80810B2
:10DDB000044651B34CB3052D02D20720BDE8F883C9
:10DDC000606910B3607C012821D0002604F090FC2B
:10DDD000D9F80810804601EBC800694604F0A7FC9A
:10DDE000B8B1012100F8041B0C4910C0096880E893
:10DDF000E200D9F8081001EBC8009DF8001041704E
:10DE00001420FEF769FF0020D8E70820D6E72E4649
:10DE1000DCE70420D2E700009C210020041501402B
:10DE2000F8B5124E0446B168E1B1DCB16069C8B121
:10DE30000027277404F05CFC0546B068694600EBD7
:10DE4000C50004F074FC78B1022101704460B06830
:10DE50009DF8001000EBC50041701420FEF73CFF58
:10DE60003846F8BD0820F8BD0420F8BD9C210020EC
:10DE7000F0B50C4693B01F210726ADF80010ADF8A1
:10DE80000410002750B1C17849070DD56A4602A990
:10DE9000FFF734FD002808D102AD02E00025ADF8FF
:10DEA00000706CB1E07810B1304613B0F0BD01AA3B
:10DEB0000AA92046FFF722FD0028F6D10AAA02E0AF
:10DEC0000022ADF80470BDF80400C3B2BDF8000034
:10DED000C1B2284672DFE8E770B50D4604991646D0
:10DEE000040040D0F6B3414800224271C0E903313A
:10DEF000242231463E48FEF731FB00F0D5F83C497C
:10DF00003431A1F1100001602031816038215C388A
:10DF1000FEF74BFB3648217838380170A1788170C4
:10DF2000E178C17061784170D4E90412C0E904124B
:10DF3000D4E90212C0E90212D4E90612C0E90612BD
:10DF4000616AD1B100F1AC0100F1B80241628A60AE
:10DF5000636A1B880B80616A436A89889980002103
:10DF6000436A07E0FFE70E2070BD666AB668765C1C
:10DF70005654491C9E888E42F7D8A16AD9B11C4AD2
:10DF8000AC32A2F10C018A608162A36A9B888B800B
:10DF9000A16A836A098819800021836A04E0A66A5D
:10DFA000B668765C5654491C9E888E42F7D894F821
:10DFB0002C1080F82C10216A49B10C4914310162EF
:10DFC000226A52884A80216A026A0988118061683F
:10DFD00021B10649891D4160616841602946BDE85B
:10DFE000704003483838FFF743BF0000C4200020CA
:10DFF000E825002010B502881D4C102A18D00021F9
:10E00000112A1BD01B2A18D1007A002815D160795B
:10E01000012820D0022824D0032824D004280CD1A1
:10E020002171E2680846002A07D0BDE81040104779
:10E03000817D012901D18088208110BD6170808897
:10E0400021898842F9D1012006E021690029F4D014
:10E05000BDE810400847022000F056F80028F4D12F
:10E0600010BD0320F8E7032020710420F4E700002E
:10E07000C420002010B5022801D0032810D1094C7B
:10E08000207800280CD000202070607900F03CF847
:10E09000002805D02169002902D0BDE810400847BA
:10E0A00010BD0000C420002002480021816181834E
:10E0B00081777047C4200020114810B500780128EE
:10E0C0001BD1104C6078C0B9607910B174DF0028A2
:10E0D00014D10B490120607038390620C8700848F7
:10E0E00000213838FFF7C4FE002807D1607900F01E
:10E0F0000BF810B1216901B18847002010BD000064
:10E10000E8250020C42000202DE9F04F744C87B092
:10E110000026607106A8069603F05EFA012708281B
:10E1200001D030B903E006A802F04EFA18B90698FB
:10E1300008B12770C0E0FFF7B7FF6A4DDFF8A08194
:10E140004FF0020A687808F118084FF0030B10B17D
:10E150006079012806D0A87858B16079012801D0EB
:10E1600002281FD1E16819B1E7700820884700E054
:10E17000E6706079012806D1687840B108F10100A5
:10E1800003F0CEF918B16079022802D00AE084F8D1
:10E1900005A0A87820B108F1010003F0C1F908B981
:10E1A00084F805B0287B4FF0040920B96079032872
:10E1B00001D184F80590287E20B96079042801D126
:10E1C00066712671E16841B16079032801D00428A5
:10E1D00003D1287808B16078C0B1A67018216846CC
:10E1E000FEF7E3F98DF8006001968DF8086003965C
:10E1F000607901280ED0022816D03A4E2436A6F1B6
:10E200005C0703281DD004284CD13AE0A7700720F2
:10E210008847E3E7ADF81260CDF804808DF8007010
:10E22000ADF8106027713FE0CDF804808DF80070E4
:10E230002889ADF81200A888ADF8100084F804A071
:10E2400032E0A88AADF81200288AADF810002548FF
:10E25000243004F0E7FA18B1287808B1607810B1DA
:10E2600084F804B01EE01F488DF808A0039687F8D4
:10E27000039000213838FFF7FBFD00281DD1052051
:10E280002BE0A88BADF81000288CADF812001548D3
:10E29000243004F0C7FA18B1287808B1607878B152
:10E2A00084F80490607918B1684673DF002804D1BF
:10E2B000E16809B120798847002007B0BDE8F08FF8
:10E2C00008488DF808A0039687F803900021383895
:10E2D000FFF7CEFD0028F0D106202071E2E7000014
:10E2E000C4200020E825002070B5054601461C2208
:10E2F0000F48FEF733F90F4C00262670286830B11E
:10E30000016861604068A060201D7ADF02E0094872
:10E31000001D7BDF00280AD14FF6FF706080667019
:10E32000BDE87040044A00210448FFF7DFBC70BD1F
:10E33000D4260020E420002091260200902802002C
:10E3400070B51E4C068800251B49E289102E15D099
:10E350001B4B112E1CD0122E29D0502E17D130F865
:10E36000061F914213D14189022910D1007B10F080
:10E37000010F11D0BDE8704000F0EABF83884B80E8
:10E380008369CB60C06908614D70002AF2D070BD0E
:10E390004FF6FF7048804D701868FFF741FD002868
:10E3A000F5D0A1690029F2D0BDE870400847826825
:10E3B000CA60C0680861DDE7E4200020D4260020A0
:10E3C0009028020001480068FFF72ABD902802004B
:10E3D0007CB5054608880C460930904201D90C20CE
:10E3E0007CBD684671DF0028FAD121880820685476
:10E3F00020881B21401C80B2208029542088401C8A
:10E4000080B220802844DDF801100160BDF80510BD
:10E4100081802088801D80B220809DF8001001B18D
:10E42000012129542088401C208000207CBD000050
:10E4300030B585B00D46040039D0BDB36868A8B3C7
:10E440001C4B4FF6FF7020800FCB0DF1040C8CE8B5
:10E450000F0041F23050ADF8000001A8811E63DFCB
:10E46000002821D1221D69460120A0DF00281BD1F0
:10E470009DF80200A071204601F020FA002813D177
:10E48000204601F0CDF900280ED12946204601F0A2
:10E4900063FA002808D16868A062A86800B1E06249
:10E4A000054901200870002005B030BDFFE70E20AF
:10E4B000FAE7000094280200F82000203EB500286A
:10E4C0003CD000293AD0826A002A37D00A88102A24
:10E4D00023D0112A33D0502A21D0512A2ED10446DC
:10E4E0000A4611F8060F022828D14888238A984244
:10E4F00024D1907B042821D006281FD005281DD0C8
:10E500002046891C02F090FF002817D0E16A0029FC
:10E5100014D003B0BDE830400847898811E0CA88AC
:10E5200003899A420AD108228DF800200A7C123110
:10E530008DF808200191826A694690473EBD4FF6EA
:10E54000FF7101803EBD000030B585B028B303885F
:10E55000A3F57F44FF3C22D0124B1B78FBB1114B3B
:10E5600010255B1C00241D7059709A700125032131
:10E57000ADF810100094019402940394018AADF850
:10E58000001004A9CDE902138DF80250ADF8044043
:10E5900000886946A6DF05B030BD0E20FBE70820E5
:10E5A000F9E70000F82000207FB5044601208DF82F
:10E5B000060041F60A00ADF80400454A01A9012011
:10E5C000A0DF00287ED1228804F13C0552B14048EA
:10E5D0002B46801C009042F62920616800F0CAFC9E
:10E5E000002873D1228952B139482B460A30009055
:10E5F00042F62420E16800F0BDFC002866D1228AA2
:10E6000052B133482B461230009042F62520616902
:10E6100000F0B0FC002859D1228B52B12C482B4677
:10E620001A30009042F62720E16900F0A3FC002890
:10E630004CD1228C52B126482B462230009042F613
:10E640002620616A00F096FC00283FD1228D52B14D
:10E650001F482B462A30009042F62820E16A00F03D
:10E6600089FC002832D1216B71B102A803F0C9FDE9
:10E6700017482B4632300090082202A942F6232088
:10E6800000F078FC002821D1606B58B110492B466E
:10E690003A3100910279016842F62A2000F06AFCC2
:10E6A000002813D1A16B81B102A802F07BFF0848BA
:10E6B0002B4642300090072202A942F6502000F07B
:10E6C00059FC00E002E0002800D1002004B070BD39
:10E6D0000021002070B5044601F0AEFA2146124830
:10E6E00000F050F82046FFF72BFE204600F07AF9A4
:10E6F0000D4821466430FFF7E1FE20880B4D1028BD
:10E7000002D011280BD107E0072000F067FA08B10A
:10E71000FFF7B2FAA08801E04FF6FF70688020464C
:10E72000BDE87040FFF766BCB024002080200020C8
:10E7300038B5044608682060486860604FF6FF708E
:10E74000A08401208DF8020041F60D000D46ADF8C1
:10E75000000004F1080269460120A0DF00280FD163
:10E760002946204602F0E6F8002809D1294620462D
:10E7700003F02AFE002803D12946204603F0AEF913
:10E7800038BD000070B50A88102A23D0112A23D082
:10E79000502A1ED105468C1DC888698A884218D126
:10E7A0000F4800684FF400210D4A8143121D11608B
:10E7B000111D00F4002008606B68628904F10C01EF
:10E7C00028469847207B10F0010000D0012085F8F2
:10E7D000220070BD898801E04FF6FF71818470BD11
:10E7E0000405005007B584B050B1828CA2F57F4378
:10E7F000FF3B02D090F8222022B1082007B000BDD4
:10E800000E20FBE7BDF81820142A01D90720F5E7F0
:10E8100000220092019202920392428B039106A978
:10E820000291ADF8002001218DF80210808C69461C
:10E83000A6DFE3E770B504460D460846FDF7C0FEC7
:10E840002080656070BD000000B5194887B00023C6
:10E85000406805904822174905A803F0AFFB08B1AE
:10E86000FFF70AFA6A460121002003F091FB08B184
:10E87000FFF702FA01208DF80C000F4803F0ACF905
:10E8800008B1FFF7F9F9684603F078FB08B1FFF724
:10E89000F3F90A4803F068FB08B1FFF7EDF90848FF
:10E8A00003F0A6FB002801D0FFF7E6F907B000BD92
:10E8B0003428020068240020E81F0020D5E601006B
:10E8C000F12102001CB5044681786A460C4802F02A
:10E8D00095FE002813D160780A49C0EBC00001EB17
:10E8E00080001C231A46694602F044FF0548064989
:10E8F0004C30807A51F820202146684690471CBD54
:10E900005C210020D0270020B8280200F8B5054679
:10E910000820ADF8000001236A461C492846AADFFA
:10E920001B4800688047B12044DF08B1FFF7A4F915
:10E9300011DF08B1FFF7A0F94FF01024606913DF71
:10E9400008B1FFF799F9284600F014FF01204FF0B5
:10E95000E0218205C1F88022D1F800315FF000018A
:10E9600000FA01F21A420AD04AB202F01F0600FA77
:10E9700006F55209920002F1E022C2F88051491CCA
:10E980002029EDD3606900F005F8F8BDA02B002028
:10E99000BC210020FDF7B6BD7CB5114E0C004FF038
:10E9A0000005306015D06946002000F0B1F800285D
:10E9B00015D101A9012000F0ABF800280FD19DF876
:10E9C000041009B1022003E09DF8001001B10B20F2
:10E9D0002070706810B9FFF792F8054628467CBD94
:10E9E000BC20002010B51A4C0188606810290ED098
:10E9F00011292BD1401E606028D1FFF780F8002834
:10EA000024D02168002921D0BDE810400847D0B9A2
:10EA100000210122084600F0BFF808B107280FD1F5
:10EA200007220221012000F0B7F808B1072807D11A
:10EA300004220221002000F0AFF820B1072802D004
:10EA4000216801B188476068401C606010BD00000B
:10EA5000BC20002010B5032000F030FA08B10628D1
:10EA600000D1002010BD00002DE9F047074600242A
:10EA7000244802E0641C042C41D250F82420BA42FD
:10EA8000F8D1042C3BD21F48DFF87C901F4E0C3885
:10EA9000A9F1140841B301290FD002292FD104EBA9
:10EAA000440030444578002D29D0D8F810100029B2
:10EAB00025D02846BDE8F047084704EB4401755CC3
:10EAC0000E44717861B1D8F804100F4A01EB81014E
:10EAD0004900133A8068FFF763F908B988F80170B4
:10EAE000B17809F80410DEE78068FFF799F904EBC4
:10EAF0004401314419F804008D78A842D3D0BDE810
:10EB0000F087000060280200B82000208425002043
:10EB100004280CD2074A1268074B13F82030012052
:10EB20009840904300D001200870002070470020DA
:10EB3000FAE70000100500506028020010B5042814
:10EB400016D007281FD00A280ED00F280BD1104846
:10EB500000684FF480110E4A8143121D1160111D8F
:10EB600000F48010086010BDBDE8104003F0CAB981
:10EB700008481321408876DF07E00028F3D0BDE87D
:10EB80001040FFF779B8FFF797FA0828F5D110BDC4
:10EB9000040500508020002070B50023042810D206
:10EBA0000D4D00EB4004012A02D101290CD00022B6
:10EBB000094E00EB4000304461B1012906D0022922
:10EBC00006D00723184670BD0D30C2B22A55F9E7AA
:10EBD0004270F7E78270F5E784250020044A014679
:10EBE0000020127AD20702D0084600F055B87047CC
:10EBF000A420002070B50E462149054600200A6178
:10EC0000C1E90165A9071BD5002401221146204650
:10EC1000FFF7C2FF641C042C02D20028F5D00FE0DD
:10EC200070B9720804211748FEF7A6FF40B9FEF735
:10EC300091FF28B91348144A00211438FFF756F8F9
:10EC4000E9070AD0114A4FF4F01111600F4B00226E
:10EC50001B1D1A600D4A1032116000280FD109489F
:10EC60000B4A00211C38FFF741F8002807D1BDE806
:10EC7000704004480121074A1838FFF737B870BDC3
:10EC8000A420002070280200F9EE010008050050C1
:10EC9000A90B020035DB01002DE9F84F854EDFF8A6
:10ECA00010A24FF4E01CF16807462CEA010C009119
:10ECB000002071680AF10404251D7F4B4FF40032D7
:10ECC0004FF4802B01EB810E8146182F16D2DFE81E
:10ECD00007F00C17173A4E607083868F868FEAA074
:10ECE000A0A0A0A0CAD1D8E1EAEA009A4FF4F0119E
:10ECF00091432160C5F8009086F80090BDE8F88F38
:10ED0000C4F800C04846C5F80090DAF800C08CF49A
:10ED1000F01C5FEA8C3C09D522602860022F02D1EA
:10ED20004FF4E16008E04FF47A6005E02A6020606B
:10ED3000022F3CD04FF4C8706422B0FBF2F0414384
:10ED4000377000225EE0C4F800C04846C5F8009065
:10ED5000DAF800C08CF4F01C5FEA8C3C04D5226029
:10ED600028604FF44870E7E72A6020601FE0C4F88D
:10ED700000C04846C5F80090DAF800C08CF4F01CDA
:10ED80005FEA8C3C02D522602860CCE72A602060D4
:10ED9000D0E7C4F800C04846C5F80090DAF800C0D3
:10EDA0008CF4F01C5FEA8C3CDED522602860C82021
:10EDB000C2E7C4F800C04846C5F80090DAF800C0C1
:10EDC0008CF4F01C5FEA8C3C02D52260286001E0E4
:10EDD0002A602060377014E0C4F800C04DE0DAF813
:10EDE00000002BEA0002226000F48020286008E086
:10EDF000DAF800002BEA0001216000F4802028608E
:10EE0000714600221868BDE8F84FFEF7C9BF2160BF
:10EE10002EE098465868FFF703F8D7F1110100D0AB
:10EE200040B1F16801F4F0112160C5F80090C6F816
:10EE30000C9063E74FF40022F26001290CD9C8203E
:10EE400011FB00F16420B1FBF0F170680022414336
:10EE5000D8F80400FEF7A4FFF16801F4F01129606E
:10EE6000C4F800904AE74FF4F0112160C5F8009013
:10EE7000377043E74FF4E01121604946C5F8009030
:10EE800006E04FF4D01121604946C5F800905A467B
:10EE90002A60BCE74FF4C01121604946C5F80090D4
:10EEA0004FF4C022F4E74FF4F01129604946AEE771
:10EEB00004050050A42000205428020070B5002151
:10EEC0000C4D012455F82120920002F1A042D2F805
:10EED000006704FA01F3034000D0032326F4403610
:10EEE00046EA0343C2F80037491C0429EAD300204C
:10EEF00070BD00006028020000780221FFF7B4BD59
:10EF000005494FF0FF32082841F8202002D3084479
:10EF100080F848207047000040280020F0B54FF0EE
:10EF2000FF3512B10023082601E008230C260C4C03
:10EF300005E000BF54F823707F1C04D05B1CB34273
:10EF4000F8D32846F0BD26185DB286F8305044F854
:10EF50002310002AF5D1E11881F84800F1E70000FC
:10EF6000402800200249084490F930007047000012
:10EF7000402800202DE9F0438FB01E46DDF8589060
:10EF800015460F00804602D10020FEF775FE15B928
:10EF90000020FEF771FE1C216846FDF706FB0024E9
:10EFA0009DF80000039440F002008DF8000001205D
:10EFB00001948DF83600049405940694ADF83480DD
:10EFC0000C9430788DF8300070788DF831009DF811
:10EFD0003200142120F00600801C20F019008DF86A
:10EFE000320007A8FDF7E1FA0DA807900CA80890D9
:10EFF0000748ADF82450ADF82640ADF828500B97DF
:10F000004B4607AA69460088A2DF0FB0BDE8F0832F
:10F01000002100202DE9F0413A48017801EB8101FF
:10F0200000EB8104D4E9030600EB40013648241DBF
:10F0300000EB8100B0F808804589476802F065FB65
:10F04000B6FBF0F100FB116080B3002008FB0577F0
:10F050006188A288DFF8B48011448D190022C8F8B5
:10F06000102040B102F051FB6188884221D0BD429E
:10F0700001D1A088E8B1A06803281AD002F045FBAE
:10F08000A18844463144B1FBF0F200FB1210800825
:10F09000C8F80C0002F039FBB5FBF0F100FB115091
:10F0A00078B10020BD4228D068B126E0FFE70120FA
:10F0B000CCE702F02AFBB6FBF0F10320C8F81410ED
:10F0C0001CE00120EEE7ADB2BEB202F01EFBB6FBC3
:10F0D000F0F702F01AFBB5FBF0F0874201D1701B8C
:10F0E00009E002F012FB064602F00FFBB5FBF0F15F
:10F0F00000FB1150301A800820610220BDE8F04169
:10F1000002F014BFB8280020142B00206421002036
:10F110000648017801EB810100EB810000790428A9
:10F1200001D000F059B8012002F000BFB82800203B
:10F130000A480B4A017801EB810100EB8100C1888C
:10F1400011620079012805D0032801D0042804D1D8
:10F15000FFF760BF012002F0E9BE7047B828002029
:10F160006421002000EB80020548002100EB8200B2
:10F1700002220171C180C0E9032141610181704710
:10F18000B82800202DE9F041114D069E6C781E2C08
:10F190001BD02F783C441E2C00D31E3C04EB84046F
:10F1A00005EB840420716261D1E90001C4E9030127
:10F1B000E38026816878401C68700648007808B9AA
:10F1C000FFF7B6FF0020BDE8F0810420FBE7000058
:10F1D000B82800206421002010B50E4C207800EBE8
:10F1E000800004EB80010020091DFEF757FD207808
:10F1F000FFF7B8FF6078401E60702078401CC0B2F6
:10F2000020701E2801D100202070BDE81040002091
:10F2100002F08CBEB82800202DE9F05F2648C168B6
:10F22000F1B3DFF898B00E688146DBF8004007695B
:10F23000C078E11B21F07F45ED1CB0B9DFF880807C
:10F240004FF48030C8F84403C8F804031120FDF7D8
:10F250002DFD1120FDF735FD4FF0010AC8F800A083
:10F260002F20FDF713F989F803A0B54200D23546E7
:10F27000124BE8193C3320F07F401860DBF8001097
:10F280005A46091B21F07F41001B20F07F40C91C1A
:10F2900081420FD9106818602F20FDF7F7F800E0C1
:10F2A00004E0BDE8F05F1120FDF716BDBDE8F05F9A
:10F2B00002F0DEBBBDE8F09F9C2100200415014058
:10F2C000001001402DE9F04117880646B81D14468C
:10F2D0000D46984202D90C20BDE8F0813188072202
:10F2E00006290AD34FF4486C4FF6FF73614501D9E4
:10F2F000994202D17088062801D21046ECE7604599
:10F3000001D99842F9D1994203D0984201D0814263
:10F31000F3D80520E85520881221401C80B22080B7
:10F3200029542088401C80B220804119308803F085
:10F330009FF92188084480B220804119708803F029
:10F3400097F92188084420800020C5E7FEF794BC87
:10F35000F8B5134801F0C8FB114D0026114C0C3DC7
:10F3600030B16169B9B101208DF80000684611E043
:10F37000287820B1616971B18DF80060F6E768788E
:10F3800058B1A168084800220068FEF709FD10B1D5
:10F39000A16901B188472E70F8BD6168F2E70000ED
:10F3A000F0200020D42600209028020070B5094BE0
:10F3B000044608209E7A00250E4208D0A4F57F401E
:10F3C000FF3802D01889A04202D10020156070BD1C
:10F3D000052070BD1028002000EB400207480121E5
:10F3E00000EB820081724FF6FF710181FF21C17233
:10F3F0000021016081808171704700001028002089
:10F4000070B5054688B0234A40F6CD410F20FFF77E
:10F41000F1FB08B1FEF730FC0024012606FA04F0E7
:10F4200010F4F01F02D0204601F07FFF641C202C56
:10F43000F4D306A90020FFF7AFFA08B1FEF71CFCD1
:10F440009DF81800022823D000202870112001F018
:10F450006CFF0C2001F069FF0023102000931A4676
:10F460001946019301F02EFF0B4A02AC0FCA84E843
:10F470000F000C208DF80B000748084A02A9083835
:10F4800001F08EFE002801D0FEF7F6FB08B070BD3B
:10F490000120DAE73DEB01004428020005200200CC
:10F4A00010B5134C207900071ED46069401C6061C0
:10F4B000E06808B104200AE001F024FB08B1022052
:10F4C00005E0206960B16068C10704D00320BDE891
:10F4D000104002F083BE40F0010060600020F6E7BB
:10F4E000BDE81040FFF714BEBDE8104002F06CBE4E
:10F4F0006421002006494868020707D4820702D524
:10F5000040F001004860022002F068BE02F05CBEDC
:10F51000642100202DE9F04100260125144C22E051
:10F520006068226900EBC607387805FA00F11142DD
:10F5300017D08A43226101F0F5FD02463878E3686E
:10F5400005FA00F1194002FA00F3994209D17978DD
:10F55000012901D0012100E0002151407A6802B167
:10F560009047761CF6B220788642D9D3BDE8F08168
:10F57000882100202DE9FC410E46044681786A4628
:10F58000254802F03BF8002828D16078234F00EB93
:10F59000400007EB8000807A400621D4022E1FD065
:10F5A000012E1FD01E4DA0781E49C0EBC00001EBFC
:10F5B000800100231C226846A847A8B1022E0DD066
:10F5C0002078164900EB40000C3101EB8000164911
:10F5D000807A51F82020214668469047BDE8FC819A
:10F5E000124DE0E7124DDEE7022EF7D0607800EB17
:10F5F000400007EB8000817A21F0400181720749C9
:10F6000060784039C0EBC00001EB80011C231A4632
:10F610006846A847D4E700005C210020102800209D
:10F62000512102000C270020A8280200A119020085
:10F63000D11802002DE9F04705250F4F9046894665
:10F6400006460024C4EBC40007EB800036B1072255
:10F6500031461030FCF7BBFF18B106E0018B414585
:10F6600003D10025C9F8004002E0641C072CE9D34F
:10F670002846BDE8F08700000C2700207CB5054631
:10F6800081B26A46074801F0B9FF040008D174212D
:10F69000684601F0DDFF040002D1284601F04AFF70
:10F6A00020467CBD5C21002070B505460C4610004C
:10F6B00001D0FEF7E1FA2078152802D12846FEF79E
:10F6C00093FA002070BD00001FB58DF80C0002F009
:10F6D00021F808B1FEF7D0FA03A800F061FD08B1E7
:10F6E000FEF7CAFA0020CDF805008DF809009DF854
:10F6F0000500694620F07E0040F00100303020F027
:10F7000080008DF8050007208DF8060010208DF888
:10F7100007000648009001208DF80400044800F01E
:10F72000A5FE002801D0FEF7A7FA1FBDA9F601002B
:10F730008120002001B50449684600F063FA0028E2
:10F7400001D0FEF799FA08BDC021002010B5097854
:10F7500049B103220121FEF7F7FE002808D0BDE8D9
:10F760001040FEF789BA0088BDE81040FFF7CEB818
:10F7700010BD000030B58BB000242349009400F088
:10F78000E3FC002811D101A91F4800F081FC70B1F1
:10F790001E491D4800F068FD08B1FEF76DFA1B48D0
:10F7A00000DF002801D0FEF767FA0BB030BD0598E6
:10F7B000164D102201692960818AA980807DA87177
:10F7C000E81D0599FCF7CAFE112205F11800019900
:10F7D000FCF7C4FE019850F8121F45F82A1F416833
:10F7E000696000892881094800DF08B1FEF744FA02
:10F7F0000120009004200890CDF824D007A90248E9
:10F80000079400F097F9CCE7C02100206C2B002072
:10F81000704700000149086070470000BC210020CB
:10F8200030B58FB005461C216846FCF7BEFE0024AB
:10F830009DF80000019440F018008DF8000003943A
:10F84000049405940694A8798DF8360041F231505D
:10F85000ADF834000C949DF83000142120F0FF0026
:10F860008DF830009DF8310020F00F00401C20F092
:10F87000F00010308DF831009DF8320020F00600C5
:10F88000801C20F0080040F011008DF8320007A81D
:10F89000FCF78BFE0DA807900CA80890ADF824404B
:10F8A0001720ADF82640ADF828000B94A88805F184
:10F8B000100307AA6946A2DF0FB030BD30B58FB084
:10F8C00005461C216846FCF770FE00249DF80000E8
:10F8D000019440F004008DF8000003940494059412
:10F8E0000694A8798DF8360041F23250ADF8340014
:10F8F0000C949DF83000142120F0FF008DF83000AA
:10F900009DF8310020F00F00401C20F0F000103076
:10F910008DF831009DF8320020F00600801C20F0A8
:10F92000180040F001008DF8320007A8FCF73DFEFA
:10F930000DA807900CA80890ADF824401420ADF84D
:10F940002640ADF828000B94A88805F1080307AA03
:10F950006946A2DF0FB030BD70B58EB00E460546C9
:10F960001C216846FCF721FE00249DF8000001944C
:10F9700040F002008DF8000003940494059406946E
:10F98000A8798DF8360041F23450ADF834000C946B
:10F990009DF83000142120F00F00401C20F0F000F2
:10F9A00010308DF830009DF8310020F0FF008DF808
:10F9B00031009DF8320020F00600801C20F0180075
:10F9C00040F001008DF8320007A8FCF7EEFD0DA80D
:10F9D00007900CA808900220ADF82400ADF826404E
:10F9E000ADF828000B96A88805F1200307AA694600
:10F9F000A2DF0EB070BD00003EB504461F4801787E
:10FA000048F20800002930D084B3217800292CD195
:10FA10001B4900250968002927D0A178072929D288
:10FA2000184AC1EBC10002EB8000807EFF2821D084
:10FA300012486A46103001F0E1FD002815D160231C
:10FA40000422694602A801F095FE0299491C0CD0D7
:10FA5000602304220C49684601F0A2FF002804D16B
:10FA6000084AA1781C3A42F821503EBDFFE748F20F
:10FA70000E00FAE748F21000F7E700004C210020E2
:10FA80001C2800200C270020A42802003EB50C46AC
:10FA900025490A7848F208015AB38A1D18B114B1F1
:10FAA000027832BB01E010463EBD204A126802B324
:10FAB000817807291FD21E4BC1EBC10203EB8202E2
:10FAC000927EFF2A17D01A4AA3681C3AB3B142F8B3
:10FAD0002130817814486A46103001F08FFD0028EB
:10FAE000E2D160230422694602A801F043FE48B136
:10FAF00016E008463EBD48F210003EBD52F8211007
:10FB0000A160E6E70298401C0AD0642310226946EF
:10FB1000A06801F02FFE0028EFD1029961603EBD80
:10FB200048F240003EBD00004C2100201C2800206F
:10FB30000C270020FEB505462D480C46017848F2FA
:10FB40000800002924D0811D1DB314B3A26802B39C
:10FB5000297800291CD127490968002918D0A978DB
:10FB6000072918D2244BC1EBC10203EB8202927E1B
:10FB7000FF2A10D06A7803F5827302EB420203EB8E
:10FB80008202927A120703D56068042806D2072001
:10FB9000FEBD0846FEBD48F21000FEBD1448174EDB
:10FBA0006A46103001F02AFD0028F6D160230422B5
:10FBB000694602A801F0DEFD18B90298401C00D089
:10FBC0000F4E60230422211D6846B0470028E4D16F
:10FBD000642310226846A16801F0E2FE0028DCD10F
:10FBE000054BAA781C3BA16843F82210FEBD00001B
:10FBF0004C2100201C2800200C270020D1180200D6
:10FC0000A11902000A4A137848F208026BB1931D49
:10FC100019B110B1007840B901E018467047054BA2
:10FC20001B6813B108700020704710467047000031
:10FC30004C2100201C2800202DE9F04F054693B0F0
:10FC4000FA48FF24079400784FF0000A002853D0A8
:10FC5000F74E306800284FD001A800F095FA08B19F
:10FC6000FEF70AF8281D05902C20ADF81800002793
:10FC7000FF208DF806008DF804700097EC4C288862
:10FC80000C3CBB4610280FD0A8886A460221FFF71B
:10FC90008DFB48B9009800EB400104EB8101C97A63
:10FCA0008DF806108DF80500DFF884932888A9F1F7
:10FCB0004C091321A9F1C408192874D010DC1028AC
:10FCC0001DD011285DD013286ED0142814D10098AF
:10FCD00000EB400004EB8000C07AFF287CD099E064
:10FCE000D44A1A2876D01E2875D0522804D1B07A6A
:10FCF00052F8201001A8884713B0BDE8F08F4FF6E6
:10FD0000FF766A4601213046FFF750FB0028F3D109
:10FD10000099022201EB410004EB80008272112263
:10FD20008DF810208DF80510A9880181A96801605F
:10FD3000A9898180A97B8171E87DC10708D0BB4971
:10FD4000083101EB50000078FF2809D0079007E048
:10FD5000324607A905F10800FFF76CFC00280FD117
:10FD60000099079801EB410104EB8101C8728A7A7E
:10FD700042F008028A728DF8060001A8FEF7A2FD83
:10FD80006FE1009800EB400004EB8001887A20F0DE
:10FD900002008872010708D500060FD5002101A8CE
:10FDA000FFF7E8FB0AE0BDE043E09DF80600FF280E
:10FDB00004D001F0BFFBFF208DF806000099102051
:10FDC00001EB410104EB8101887212208DF81000D3
:10FDD00047E101E0FDE042E12A8A07A90020FFF7A0
:10FDE00029FC78B90098079900EB400004EB8000EB
:10FDF000C172827A42F0080282728DF8061001A860
:10FE0000FEF760FD009800EB400004EB8000C07A34
:10FE1000FF2804D00098C0EBC00109EB810A0098CC
:10FE20000023C0EBC00108EB8102A888514686DFA1
:10FE300062E700988DF8101000EB400004EB8001A1
:10FE4000887A40F004008872CA7AFF2A0BD040F00A
:10FE500040008872162000238DF81000A8881A46EA
:10FE600085217FDF33E00DF11C0C48F243030020B5
:10FE70004FEA0802C0EBC00802EB880898F81A8025
:10FE8000B8F1FF0F26D0401C0728F3D34FEA030731
:10FE90000099CDF830B001EB410304EB8303DB7A2A
:10FEA000C3EBC30302EB8302CDE90D2BC1EBC1020F
:10FEB00009EB8201CDE9081BCDF83CB0CDF828B0A4
:10FEC000CDF82CB0321DA88808AB00217FDF0028B8
:10FED000AED1C6E00B78022B12D0C0EBC00302EB10
:10FEE00083034FF0FD0883F81A80D1F80080C3F82F
:10FEF0001080B1F80480A3F814808979997505E021
:10FF0000C0EBC00102EB8101FE238B768CF8000070
:10FF10000099079801EB410104EB81018DF806007F
:10FF2000C872B5E7707A20F001007072009E06EB8F
:10FF3000460304EB8300817A21F0040282721421CB
:10FF40008DF81010297A31B1510603D4C07AFFF729
:10FF500095FB2F7A85E0697A490739D59DF8061017
:10FF6000FF297ED042F0080282726A7B920707D591
:10FF7000C1EBC10508EB8502957E25F0010595765C
:10FF8000C27AFF2A6DD014F82320022A0ED0C1EBCA
:10FF9000C10208EB820102680A6182888A82807944
:10FFA0008875887E20F0020088760DE0C6EBC602D8
:10FFB00009EB8200C1EBC101428A08EB8100028398
:10FFC000817E21F001018176012101A8FFF7D2FA9B
:10FFD00047E0287A0121B1EB101F2DD100F00F006E
:10FFE000012829D1009800EB400104EB8101897AB6
:10FFF000090721D50E4900EBC000303901EB800024
:020000040002F8
:100000001A210830FCF7D1FA16208DF8100000985C
:1000100000EB400004EB8000817A41F060018172C6
:10002000707A40F00200707217E000004C2100204E
:100030001C280020C8280200009800EB400004EBB8
:100040008000817A41F08001817215208DF81000C6
:10005000B07A52F8201001A88847002701E08DF8F7
:1000600010103A4604A901A8FDF712FE9DF81000F1
:1000700012287FF4DDAE009800EB400104EB810113
:10008000897A01293FF4D4AEFFF7A6F934E60000DF
:100090002DE9F043064629480C4689B0017848F21C
:1000A000080000293FD0811DF6B3ECB33178002958
:1000B00039D1234900250968002934D0B0780728B0
:1000C00038D2204FC0EBC00007EB8000807EFF28B5
:1000D00030D0E560B07807F58E79C0EBC00007EB53
:1000E0008000C4E90405E846A5601448C4E9008915
:1000F000B17807AA103001F081FA002813D11C232F
:100100001A4607A9684601F035FB00280BD1E560C7
:10011000B178C1EBC10107EB8101C4E90415C4F852
:100120000080C4E9019500E002E009B0BDE8F08379
:100130000846F8E748F21000F5E700004C210020DF
:100140001C2800200C27002030B5044611B1087887
:10015000A0B902E048F20E0030BD0A480023006852
:1001600060B1084AFF200C3A887015890520A54225
:10017000F2D14B70D07A8870002030BD48F2080070
:1001800030BD00001C28002030B1FF2101704170FB
:100190008170C1700020704748F20E007047000067
:1001A0002DE9FF4105003AD02B4800240460447239
:1001B00084722046FFF710F9274824213038FCF7D5
:1001C000F4F90026DFF89480FF27304601F0B2F9F9
:1001D00008F80670761C072EF7D37420ADF80400DB
:1001E0000720ADF806001E481C49009008316846FB
:1001F00001F014FB00280FD1184E0120083E30708A
:10020000287878B1BDF80400BDF80610484381B2E3
:1002100006F1100001F01CFA04B0BDE8F08148F2CC
:100220000E00F9E70F4F00250C48A9B202AA0830CA
:1002300001F0E4F948B9C5EBC50007EB80000023E5
:100240001C2202A901F096FA08B13470E4E76D1C93
:10025000072DE9D3E0E700001C28002054210020EE
:10026000E50202000C2700201B4A137848F208021E
:10027000F3B1931D18B111B10378CBB901E0184661
:100280007047164B1B689BB1837848F20502FF2B21
:1002900010D01348C3EBC30300EB8300837E9B079E
:1002A00006D402690A60828A8A80807D8871002271
:1002B000104670474078FF28FAD000EB400307480B
:1002C0000C3800EB8300837A9B07F1D502680A6043
:1002D00082888A808079E9E74C2100201C28002050
:1002E0000C2700202DE9F04F80465C4891B01E4657
:1002F00000681A9F93468A46002870D0742F6ED8E3
:100300006846FFF741FF08B1FDF7B6FC00248DF801
:1003100000408DF80440CDE905762546A9B20FAA24
:100320004F4801F06BF928B908220FA94046FCF7A5
:100330004EF9E0B16D1C072DF0D300BF9DF802000F
:10034000FF287FD04FF020094FF0400C04ADBAF1E8
:10035000030F0FD0434A1C27B11AB1FBF7F1012359
:1003600007291AD20295BBF1000F0BD010E08DF8CF
:100370000250E3E7742F02D08DF804C065E08DF8D9
:10038000049062E036498340103949680B4259D0E5
:1003900002F074F98DF8049045E030494C39A6EB31
:1003A0000108B8FBF7F7DFB101F11C02B11A2427ED
:1003B000B1FBF7F702F124013FB32B4A8DF804C0DB
:1003C000964242D0A1F5907252F82020B24239D123
:1003D0000295C97A884226D18DF8014023E031E0A8
:1003E0001E4B02958DF804908DF801400C33079157
:1003F000CDE90B439DF80210C1EBC10102EB810175
:10040000089107A9CDE905910DE030208DF8014054
:100410008DF804008DF80330887A800703D42421F6
:100420001046FCF7C2F89DF80400BAF1020F11D093
:1004300040F002008DF804005A4601A96846029572
:10044000FDF726FC11B0BDE8F08F9DF8040040F0E8
:100450000300EFE740F00100ECE700001C2800205B
:100460005C2100200C270020A4280200174A10B5A8
:1004700012785AB148F20E0258B151B10B6843B12B
:10048000134A14683CB148F2040010BD48F2080059
:1004900010BD104610BD0E4C13602C3CD1F8053039
:1004A00023634B7A84F834300979917223F0050183
:1004B00041F002011172D17921F0040141F00301F0
:1004C000D17100210170084610BD00004C210020B0
:1004D0001C2800200E4910B54A788C780023A242CF
:1004E00012D0521CD2B24A70022A00D14B70084A74
:1004F0004B78183252F8232002600869104420F02B
:100500007F400861012010BD0360002010BD000085
:100510009C210020002808D0112801D0FDF7D4BB71
:100520000248416841F008014160704764210020A1
:1005300010B51F4C204621784068012910D00229AF
:100540002DD0032932D1000725D46069401C606199
:1005500000F0D8FAD8B12078BDE8104001F0E6BC30
:10056000000718D41348A28B017801EB810100EB3E
:100570008100C188891A0904090CC18003D0BDE833
:10058000104001F0E7BDBDE81040FEF725BEBDE814
:100590001040FEF7BDBDBDE8104000F05BBC064852
:1005A000617850F82100BDE81040004710BD000000
:1005B00064210020B8280020EC28020028DFFFF783
:1005C000A9BF29DFFFF7A6BF20B10349496D01602C
:1005D0000020704703207047A82B00200EB517A1FC
:1005E0009DF8080020F00F00401C20F0F0001030B3
:1005F0008DF808000F2202A87CDF08B1FDF73CFB54
:1006000040F2413078DF08B1FDF736FB0020009062
:1006100001904FF4A071ADF80400ADF800104FF454
:10062000C8704FF40271ADF80600ADF802106846CC
:100630007ADF002801D0FDF71FFB0EBD436F6E74FB
:10064000726F6C6C65725F54657374000020704744
:1006500000207047002070472DE9F0474178DFF80F
:10066000A490054601EBC10209EB8200002401EBD6
:10067000410109F1240A4368274626460AEB810115
:1006800063B191F80AC05FEA0C6807D55FEA4C6C69
:1006900004D459F8226000F108049FB20889D046BA
:1006A00033463A462146A9DF48F241090B281CD0BF
:1006B00000B14846012E16D168784FF6FF7200EB64
:1006C000400008EB80000C210089A7DF00280AD039
:1006D000A0F54051023913D0082811D0891E0FD03F
:1006E00011280DD00020BDE8F0876878012300EBC9
:1006F000400008EB80003A4600892146A9DFDBE78D
:100700004846F0E7EC27002070B50C4601466078BB
:100710000A4D00EBC00005EB80003823242201F0D5
:1007200029F8002808D1617801EBC10105EB8101AE
:100730004A68521C00D14A6070BD0000EC270020BE
:100740002DE9F04188B0804603271A20ADF81C003F
:1007500048782A4E00EB400006EB80000D460089E9
:100760003B4607AA6946AADF28BB6878A6F124049D
:1007700000EBC00004EB8000BDF81C206946083087
:10078000FBF725FF0028687807D000EBC00004EBDA
:100790008001496881B11A4E0FE000EB400106EB81
:1007A0008101897A890724D400EBC00004EB800022
:1007B0002421FBF7FAFE1CE0124E44F82070687802
:1007C000BDF81C2000EBC00004EB800069464260CD
:1007D000687800EBC00004EB80000830FBF7BEFE39
:1007E0006878382300EBC00004EB800124224046E7
:1007F000B04708B00020BDE8F081000010280020BC
:10080000A1190200D1180200FFF726BFFFF77CBF35
:10081000FFF796BF2DE9F041124E07460125BD4076
:100820003068FDF7FDFA00280DD10F4C20692842F1
:1008300007D1384600F076FC0028E06805D0284350
:1008400004E0A8432061BDE8F081A843E06020698E
:1008500028432061A1683068BDE8F0410022FDF71F
:100860009FBA0000102902008821002070B51B4C9F
:10087000207900072DD41A48017801EB810100EBA3
:1008800081052E6900F041FFE9882A89761E11440E
:100890003144B1FBF0F02169002549B16169814221
:1008A00006D1E560606840F001006060002008E06B
:1008B00000F028F910B10220E56002E0206920B1C3
:1008C0000320BDE8704001F089BCBDE87040FEF730
:1008D0001FBCBDE8704001F077BC0000642100201F
:1008E000B8280020114810B501780A22491C01706F
:1008F0004178491C41700E484168491C41600B49D0
:10090000A1F15000FDF76EFF002C0ED0082C0CD08A
:10091000A4F54050043808D043F20140844204D08A
:100920002046BDE81040FDF7A7B910BD0025002006
:100930008020002070B594B00024054607949DF8EF
:100940001C000E4620F00F00401C20F0F00010307C
:100950008DF81C00087A8DF81D009DF81E001C21E2
:1009600020F00600801C8DF81E006846FBF71DFE77
:100970009DF80000019440F012008DF8000007A8D7
:10098000CDE9044001208DF84E0003944FF6E0704D
:100990000694ADF84C000D94707A8DF83400B07A5E
:1009A0008DF835009DF83600142120F00600801CDB
:1009B00020F0180040F001008DF8360008A8FBF781
:1009C000F4FD13A808900DA809900EAA002128464E
:1009D00000F011F8ADF828001420ADF82C000EA896
:1009E000ADF82A400C90288905F10A0308AA694647
:1009F000A2DF14B070BD2DE9F041904600270446F7
:100A0000CAB2FF2907D9090A012788F8012088F806
:100A10000210032502E088F801200225B4F84E00F8
:100A200008B147F01007002618E0A81C14280BD9BD
:100A3000B4F84E0004EB4601801B420004F126008E
:100A40002631FBF78BFD0DE004EB460108EB0502B8
:100A5000C98C1170090A5170C5B2761CB4F84E00E9
:100A6000B042E2DC34F84E0F801B208088F8007022
:100A70002846BDE8F0810000F8B51A4C207800281F
:100A80002ED0206928B10026E06820B1002526B1CB
:100A900010E00126F8E70125F9E7684652DF05284E
:100AA00003D020B1FDF7E8F804E0012602E0216957
:100AB0000098884785B96088ADF800006946A0684D
:100AC00061DF052803D020B1FDF7D6F804E0012549
:100AD00002E0D4E902018847002EDED0002DD6D0F6
:100AE000F8BD0000C4210020054940880A889042D2
:100AF00004D34988884201D80120704700207047FC
:100B0000E820002070B50E48017801EB810100EB70
:100B10008104256900F0F9FDE18822896D1E1144E8
:100B20002944B1FBF0F1074842698A4205D301D15B
:100B3000006910B14FF0000070BD4FF0010070BDB2
:100B4000B828002064210020800701D000207047D1
:100B50000120704730B51488E51C9D4201D90C2056
:100B600030BD02250D5513881C245B1C9BB21380DD
:100B7000CC5413885B1C9BB21380012807D0022839
:100B800007D0032807D0042807D0072030BD002055
:100B900004E0012002E0CD5401E00320C854108895
:100BA000401C1080002030BD0348017AC90702D0E4
:100BB0000078FEF771B87047A42000202DE9F047B7
:100BC000DFF8ACA0DAF80C009AF8004080469AF8FA
:100BD0000460DAF80890DAF810703AE009EBC4051E
:100BE0002A7833E002EB42016B68521C03EBC1012F
:100BF000AB78D2B2934200D100220B78022B02D004
:100C0000032B23D11FE0D1F804C00346014603E0C3
:100C1000614503D00B46C969C1B1F9E7B1B18B4257
:100C200005D1C06918B9134F0126BE600027D1F85D
:100C300000C0C969D96149B10B6863440B6005E024
:100C40000174C06900E000210028F9D1697891425F
:100C5000C8D1641EE4B2C1D2CAE903078AF80460AD
:100C6000404502D00120BDE8F0870020FBE70000EE
:100C70009C210020001001402DE9F04705462F4837
:100C8000002680460778D0F80C904BE0D8F8080092
:100C900000EBC70440E002D02846ED691EE0207852
:100CA000616800EB4002401CC0B201EBC201207041
:100CB000A278904200D126700A784868012A2DD186
:100CC000027C5ABB8A684260CA6882600A69C26054
:100CD0004969816198F8041001B146604268D8F80A
:100CE0001030DFF85CC0D11A21F07F41614502D29B
:100CF0008268114406E0991A826821F07F418A4295
:100D000002D9511A016000E0066046600121866048
:100D10000174C66101F0E6FA002DBCD1207861783B
:100D20008842BCD17F1EFFB2B0D2D8F80C10494522
:100D300002D00120BDE8F0870020FBE79C210020C5
:100D4000FFFF7F0000239AB03A4A05211846FCF7BE
:100D5000DFFF08B1FCF790FF374A01213748FCF765
:100D6000C5FF08B1FCF788FF18A8FEF749FBFDF79F
:100D70006BFD9DF86000FEF7A7FCFFF72FFC382104
:100D800001A8FBF712FC02208DF8040001248DF865
:100D9000064006218DF80710ADF81400284806908B
:100DA00024210FA8FBF701FC8DF848404FF4967002
:100DB00000241390B42000941490224B0FAA2146D3
:100DC00001A8FDF789F808B1FCF756FF00F094FF81
:100DD0001C216846FBF7E9FB4FF42030CDE90040C9
:100DE0004FF47020029003208DF80C001648C08943
:100DF000ADF80E0015480590154806908DF8104086
:100E00006846FDF771FA08B1FCF736FF0B4800227F
:100E10004FF4A0310068FCF7C3FF08B1FCF72CFFCA
:100E20000320FDF771F900E048DF0028FCD0FCF753
:100E300023FFF9E7A0220020E50802003428020081
:100E40008C200020E7130200B02400200D140200C3
:100E50004DF301000348416821F00801416000782A
:100E600001F064B86421002070B5144682880E46F3
:100E700005462088111D0144921C994201D8FE2A82
:100E800001D90C2070BD521C32542088FF21401C17
:100E900080B2208031542088401C80B2208081198B
:100EA000288801F0E5FB2188084480B22080AA88C8
:100EB00042B1A96841B13044FBF750FB2088A988B2
:100EC00008442080002070BD072070BDF8B50E4694
:100ED000017814460546012901D1687830B120888F
:100EE000821C9A422DD8012902D006E00720F8BDC5
:100EF00069780144891C994223D8181A801E87B248
:100F0000ADF800702188B01C084469467DDF0028D8
:100F1000EDD12878022805D1BDF80010B94201D8DA
:100F200009210AE00821012805D16878B84202D8D1
:100F3000ADF8000001E0ADF80070BDF80000FE283B
:100F400001D90C20F8BD2288401CB0542088401CD8
:100F500080B2208031542088401C2080BDF80010D1
:100F6000084420800020F8BD002070470020704712
:100F70000020704731B540F2E73404E0401E009095
:100F80002046FBF747FA00980028F7D138BD4907FB
:100F9000090E002806DA00F00F0202F1E02282F8C2
:100FA000141D03E000F1E02282F8001400F01F029B
:100FB000012191404009800000F1E020C0F880123A
:100FC000C0F80011704700002DE9F04788468146BF
:100FD00000F0D0FA0124224E0028484618D0FDF730
:100FE000C1FF304490F848008009032802D001284E
:100FF00006D007E01B48006804FA09F4204201D13A
:10100000022100E003214846BDE8F04700F0A1B905
:1010100000F0BCFA002820D04846FDF7A3FF0546A3
:10102000114F4FF4807007EB850100EB8500D1F87C
:10103000102580B242F00102C1F8102500F0A0F99D
:10104000B8F1000F09D04846FDF78CFF56F8200094
:10105000002802D0AC40C7F80443BDE8F087000088
:101060004028002010050050006000402DE9FC41A0
:10107000DFF8A480044608EB0400002790F9300054
:101080001346C0170E46401C01D0082740E0F278F6
:1010900019462046FDF742FF0546401C37D0B07880
:1010A00048B1A00000F1A040D0F8001721F00201E3
:1010B000C0F8001707E000217378204600910A4627
:1010C000019100F010F9F078C0B11448317800EBCC
:1010D0008500D0F81025124B1A40C0F810254FF4A7
:1010E000F8524FF4403302EA042203EA01410A4372
:1010F000D0F810150A43C0F8102509E008EB0500E8
:10110000327810F8481F41EA8211017000E004278C
:101110003846BDE8FC810000402800200060004007
:10112000FFE0FCFF03490968C14011F0010000D055
:10113000012070471005005070B5124D95F854000D
:1011400008B1082070BD0020411E2A18401CC0B202
:1011500082F830102028F8D300242046FDF7D0FE76
:10116000641CE4B20C2CF8D306210846FFF70FFFED
:1011700005494FF00040C1F80403012085F85400F0
:10118000002070BD4028002000600040034890F817
:101190005400002800D001207047000040280020A3
:1011A0002DE9FC5F80464079DFF80CB10C460BEB73
:1011B0004017397E11B10820BDE8FC9F14B93F49A2
:1011C00001EB00143A60207B01250128DFF8F0A034
:1011D000207804D805FA00F0CAF8000001E000F019
:1011E000C7F82178A946890001F1A041C1F800574C
:1011F00065784FF0FF36FF2D07D009FA05F0CAF8E1
:101200000000284600F09BF800E03546A0784FF03B
:10121000000AFF2809D0002206465346CDF800A058
:101220001146CDF804A000F06FF8E078FF2804D054
:1012300000F09EF8E07800F082F898F80520E17858
:101240000BEB42108176D8F800002178C0F8081521
:10125000C0F80C55C0F81065A168C0F82415227BB1
:10126000617B01B10121012A04D0022A05D0032AA1
:1012700008D105E041F0020104E041F0040101E081
:1012800041F00601C0F854156179C0F8C0153968FD
:1012900011B14221C0F804130721C0F800153868C5
:1012A00020B1217998F90400FFF771FE87F819A0A1
:1012B00087F8189000207FE72C2B002000290200DF
:1012C0000C05005030B541EA4201DDE9034541EA31
:1012D0008301800041EA042100F1A04041EA054178
:1012E000C0F8001730BD30B541EA4201DDE90345E1
:1012F00041EA8301800041EA042100F1A04041EA73
:101300000541C0F8001730BD30B541EA4201DDE9C2
:10131000034541EA8301800041EA042100F1A04035
:1013200041EA0541C0F8001730BD1CB5002100910D
:101330000B46012201911146FFF7C4FF1CBD1CB5ED
:10134000002100910B46012201911146FFF7DCFFBD
:101350001CBD800000F5E06000F1A040026822F4AE
:1013600040320260026842EA0141016070470000B9
:1013700001218140014801607047000008050050CC
:10138000034908B50844002101600068009008BDC9
:101390000060004002494058012800D000207047FA
:1013A000006000404058002800D00120704740589D
:1013B000002800D001207047D0F80403084000D076
:1013C000012070474058002800D00120704710B518
:1013D00085B000206B4602E00C5C1C54401C90421F
:1013E000FAD305B010BD10B550B103280CD10220BE
:1013F000FDF7F4FB002807D0BDE81040FCF73CBC2B
:10140000BDE8104000F07EBD10BD0000007800284F
:1014100007D104483B21408876DF002801D0FCF743
:101420002BBC704780200020F0B58BB001274FF017
:10143000020E05468DF80CE08DF812700889ADF8A3
:1014400014004889ADF8160001F10C00002608963A
:101450000690ADF820E007A8ADF8226009900C4690
:10146000A98A288808AAA5DF18B1E96AC9B18847FE
:1014700017E09DF81C0010F0010F12D0ADF81060BD
:10148000288803A9A8DF002812D1217B04F10D00D0
:10149000092943D2DFE801F0420E1D2326282A4005
:1014A0002C0040F2FD10ADF81000288803A9A8DF39
:1014B0000BB0F0BD8DF800600DE006221DE000BF0E
:1014C0008DF808700190AA6A694628469047002066
:1014D000EEE78DF800706289022AF1D2EDE78DF80F
:1014E00000E0F0E7032012E0042010E005200EE009
:1014F0006089032805D2032208212846FDF724F835
:10150000D6E7B4F80D00ADF8040018B106208DF848
:101510000000D8E70720FAE70920F8E70322ECE704
:101520000021425C0AB101207047491C0629F8D30A
:101530000020704770B50546C0EBC5010C48002679
:1015400000EB81042046C4F81160A4F81560102156
:10155000FBF72BF8FF202074A0764FF6FF70208356
:10156000284601F08BF802481C3840F8256070BD11
:101570000C2700200449084490F93000082801DBBA
:10158000012070470020704740280020044908448B
:1015900090F93000082801D20120704700207047E0
:1015A0004028002070B50D00044602D10020FCF751
:1015B00063FB14B90020FCF75FFB28782070698872
:1015C0006170090AA170A988E170090A2171E8888F
:1015D0006071000AA07170BD06490979490701D4FC
:1015E0000820704720B10449497801600020704705
:1015F0000E20704764210020B828002070B5124BDF
:101600001B795B0701D4082070BDB8B1B2B1036883
:10161000022B11D20D4C03EB430554F825605EB14B
:10162000466804EB850004894568408901FB046134
:1016300000FB0450884203D8072070BD0E2070BD07
:10164000C2E90031002070BD64210020142B00206D
:10165000F8B5044623480E460079400701D4082017
:10166000F8BD24B32068022831D21F4D00EB4000A2
:1016700055F8201059B305EB800042894168008974
:1016800002FB00116068814221D9FFF75DFA80B149
:10169000D4E9000200EB400005EB800043680189BB
:1016A000D51AB5FBF1F701FB175585B903E00E20FC
:1016B000F8BD1020F8BDB6FBF1F501FB156535B995
:1016C0002EB14089414390191944884201D907201D
:1016D000F8BD002002460090334621460320FDF766
:1016E00051FDF8BD64210020142B002010B54FF0EF
:1016F00010204469601C04D000F007F8B4FBF0F03F
:1017000010BD4FF08050406910BD4FF0805000690F
:1017100080B2704770B514480024254604704470A8
:101720002846FDF71FFD6D1C1E2DF9D30F4D6C8053
:10173000FFF7DCFFC61EFFF7E8FF46430C49AE602B
:1017400000206C6100EB4002401C41F8224001EB9C
:101750008202022814815481F4D32C70AC610420DD
:10176000EC616860002070BDB82800206421002072
:10177000142B00202DE9F843804626481F461646C4
:1017800000790C46400702D40820BDE8F883ECB18C
:10179000B8F1000F1AD02068022815D21E4D00EBB8
:1017A000400055F8201079B105EB8000428941686E
:1017B000008902FB00116268914205D926B1B0424E
:1017C00002D3F119814203D90720DEE70E20DCE7BE
:1017D0004046FFF7B9F9D0B13846FFF7B5F9B0B1D7
:1017E0006068FFF7B1F990B160683246C1194046B0
:1017F000FAF7B4FE00962068002200EB4000434652
:1018000055F8205002212046A8470020BDE71020AF
:10181000BBE7000064210020142B00202DE9F041DB
:10182000294D04460E462879400702D40820BDE819
:10183000F081ECB1E6B12068D0B1FFF766FF014658
:10184000A088814212D3102810D3E08870B1FFF72E
:101850004DFF471EFFF759FF4743E288A188A8685C
:1018600002FB0102974201D3890703D00720DEE77C
:101870000E20DCE76988022924D0C6E90010134A4B
:1018800001EB410302EB83014860206842F823002A
:10189000A0880881E0884881FFF737FFA188E288A7
:1018A000401E01FB0204FFF730FF94FBF0F4FFF74A
:1018B0002CFFA96804FB0010A8606888401C6880A1
:1018C0000020B4E70420B2E764210020142B00209C
:1018D000F8B504461E481E46154600790F464007D7
:1018E00001D40820F8BDDFB1D4B12068022815D298
:1018F000184900EB400051F820207AB101EB80003C
:1019000042894168008902FB00116268914205D951
:1019100025B1A84202D3A919814203D90720F8BDF5
:101920000E20F8BD3846FFF70FF978B13046FFF7C3
:101930000BF958B16068FFF707F938B12B463A4602
:10194000214601200096FDF71DFCF8BD1020F8BDD2
:1019500064210020142B002010490246087800283A
:101960001AD0042818D0022A14D0032A14D10A79D4
:1019700012070FD48A69521C8A61B2F57A7F06D0A9
:10198000022801D000F0D2BA487800F027BC0D2020
:10199000FCF79AB9FEF7CCBD704700006421002027
:1019A000F8B504461E481E46154600790F46400706
:1019B00001D40820F8BDDFB1D4B12068022815D2C7
:1019C000184900EB400051F820207AB101EB80006B
:1019D00042894168008902FB00116268914205D981
:1019E00025B1A84202D3A919814203D90720F8BD25
:1019F0000E20F8BD3846FFF7A7F878B13046FFF75C
:101A0000A3F858B16068FFF79FF838B12B463A4603
:101A1000214604200096FDF7B5FBF8BD1020F8BD67
:101A200064210020142B0020104810B54088A0F538
:101A30007F41FF3905D0132176DF03E0FCF71CF965
:101A400002E074DF0028F9D10020FDF7C7F808B1E3
:101A5000FCF712F9FCF7B6FC08B1FCF70DF9BDE88C
:101A600010404FF4FA70FFF785BA00008020002084
:101A700070B5012670044FF0E0210025C1F8800107
:101A8000084C4010C4F84803C4F8080366602F20CF
:101A9000FAF7FCFCA660044C2F202561FAF7F6FC4F
:101AA000E57070BD001001409C21002009480A49E2
:101AB0000022C37DC1F8082143B1D1F81815437E37
:101AC000C268D154417E491C41767047D1F818054F
:101AD00070470000982800200020004070B590B0AA
:101AE0000024054607949DF81C001C2120F00F00DF
:101AF000401C20F0F00010308DF81C009DF81D00F7
:101B000020F00F00401C20F0F00010308DF81D0078
:101B10009DF81E0020F00600801C8DF81E0068460F
:101B2000FAF743FD9DF80000012640F01E008DF8F5
:101B3000000007A8CDE9044003948DF83A604FF601
:101B4000E270ADF838000D949DF83400019420F057
:101B50000F00401C20F0F00010308DF834009DF88C
:101B60003500069420F00F00401C20F0F0001030EB
:101B70008DF835009DF83600142120F00600801CF9
:101B800020F0180040F001008DF8360008A8FAF7A0
:101B90000CFD0EA808900DA80990ADF8286014203F
:101BA000ADF82A40ADF82C00288905F11A0308AADF
:101BB0006946A2DF10B070BD1FB501228DF8080084
:101BC00004488DF800200191D0E900126846904742
:101BD0001FBD00009828002008B502490020009190
:101BE00008BD00008020002010B50121202803DA64
:101BF0001D4A8140114004E0402803DAA0F1200290
:101C0000914041B1002809DA00F00F0101F1E02113
:101C100091F8141D06E042F2010010BD00F1E02130
:101C200091F800144909082914D299B1012911D059
:101C300004290FD005290DD00C4A946800F01F0329
:101C400001219940400944B152F820300B4342F839
:101C5000203007E042F2020010BD800000F1E020D9
:101C6000C0F80011002010BDFC06FFBC002C0020B5
:101C70002DE9F0410746806A14468846C8B300251E
:101C800031E000BFB96A05EB450001EB8006B08882
:101C9000801CFE2802D90C20BDE8F0812288401C5F
:101CA00008F8020020881622401C80B2208008F824
:101CB00000202088401C80B2208000EB0801308882
:101CC00000F0D6FC2188084480B22080B28842B15E
:101CD000B16871B14044FAF741FC2088B1880844EA
:101CE00020806D1CEDB297F82C00A842CAD80020C5
:101CF000D2E7FFE70720CFE72DE9F0419AB04FF098
:101D00000008CDF850805848CDE915089DF85800D6
:101D100014A920F00F00401C20F0F00010308DF8C6
:101D200058009DF8590020F00F00401C20F0F000F2
:101D300010308DF859009DF85A0020F00F00401C1B
:101D400020F0F00010308DF85A004848FCF7F0FC05
:101D500008B1FBF791FF402104A8FAF726FC45499A
:101D6000434DD1E90001C5E9050142484430868868
:101D700004684FF08050D0F80411D0F81021D0F84A
:101D80000C01CDE9000205F1140702913B787A7845
:101D900039A13E48FBF740F9BB78FA783CA105F140
:101DA0001C00FBF739F9E3B2C4F30722C4F307417F
