:020000040001F9
:10C000001050002039C5010041C5010043C50100A1
:10C0100045C5010047C5010049C5010000000000F9
:10C020000000000000000000000000004BC50100FF
:10C030004DC50100000000004FC5010051C50100C1
:10C0400053C5010053C5010001DC0100ADCD010065
:10C0500053C5010053C50100D1CB010053C50100F8
:10C0600053C50100B9DB010053C5010053C50100F0
:10C0700053C5010053C5010053C5010053C501005C
:10C0800053C5010089CD010053C5010053C501000E
:10C09000E9CD010053C50100EDCD010053C50100FC
:10C0A00053C5010053C5010053C5010053C501002C
:10C0B00053C5010053C5010000000000000000004E
:10C0C00053C5010053C5010053C5010053C501000C
:10C0D00053C5010053C5010053C501000000000015
:10C0E0000000000000000000000000000000000050
:10C0F0000000000000000000000000000000000040
:10C10000000000000000000000000000000000002F
:10C11000000000000000000000000000000000001F
:10C40000DFF80CD000F0B4FB00480047FD15020037
:10C4100010500020401E00BF00BF00BF00BF00BF83
:10C4200000BF00BF00BF00BF00BF00BF00BF00BF14
:10C4300000BF00BF00BF00BF00BF00BF00BF00BF04
:10C4400000BF00BF00BF00BF00BF00BF00BF00BFF4
:10C4500000BF00BF00BF00BF00BF00BF00BF00BFE4
:10C4600000BF00BF00BF00BF00BF00BF00BF00BFD4
:10C4700000BF00BF00BF00BF00BF00BF00BF00BFC4
:10C4800000BF00BF00BFC5D170470000401E00BF05
:10C4900000BF00BF00BF00BF00BF00BF00BF00BFA4
:10C4A00000BF00BF00BF00BF00BF00BF00BF00BF94
:10C4B00000BF00BF00BF00BF00BF00BF00BF00BF84
:10C4C00000BF00BF00BF00BF00BF00BF00BF00BF74
:10C4D00000BF00BF00BF00BF00BF00BF00BF00BF64
:10C4E00000BF00BF00BF00BF00BF00BF00BF00BF54
:10C4F00000BF00BF00BF00BF00BF00BF00BFC5D16D
:10C5000070470000056885F308884068FF2464B21E
:10C51000EFF30585002D01D1A646004725460646C6
:10C5200021273FBAF0B40024002500260027F0B4EC
:10C53000F92040B2004700000648804706480047FF
:10C54000FEE7FEE7FEE7FEE7FEE7FEE7FEE7FEE7C3
:10C55000FEE7FEE74DD9010001C4010010B5431A02
:10C56000934209D28318881803E010F8011D03F8DC
:10C57000011D521EF9D210BD40EA01039B0703D0F2
:10C5800009E008C9121F08C0042AFAD203E011F812
:10C59000013B00F8013B521EF9D210BDD2B201E0BE
:10C5A00000F8012B491EFBD270470022F6E710B5B8
:10C5B00013460A4604461946FFF7F0FF204610BD11
:10C5C000421C10F8011B0029FBD1801A704730B5BE
:10C5D00004460020034600E05B1C934203D2E05C6B
:10C5E000CD5C401BF8D030BD2DE9FE4F804681EA7E
:10C5F0000300C00F0C46009021F0004123F00045DD
:10C60000B8EB0200A94105D24046214690461C469F
:10C610000B46024623F00040104347D0270DC7F3D6
:10C620000A00C3F30A510290401A019040286BDAC5
:10C63000C3F3130040F4801B0098924620B10023FE
:10C64000D2EB030A63EB0B0B01985946C0F1400291
:10C65000504600F0CFF906460D4650465946019A1D
:10C6600000F0E7F910EB08006141002487EA11525D
:10C6700084EAE7731A4340D0009A62B3019A012A10
:10C680004FEA075215DC001B61EB02014FF000423C
:10C6900002EA0752CDE90042001C41F58011324602
:10C6A0002B4600F0E7F903B0BDE8F08F4046214685
:10C6B000F9E7001B61EB0201001C41F58013001833
:10C6C0005B412018A2F5001747EB030140EAD57043
:10C6D000B6196D4111E06D084FEA360645EAC0759E
:10C6E0004FEA0752001B61EB0201001C41F580116B
:10C6F00049084FEA30000019514132462B4603B039
:10C70000BDE8F04F00F0A7B90098012240000023D7
:10C71000D0EB020263EBE073009821464FEAE0742D
:10C72000B8EB000061EB0401E9E783F000435BE74D
:10C7300081F0004158E72DE9FE4F81EA030404F03F
:10C74000004421F0004100944FF0000B23F000431F
:10C7500050EA01045ED052EA03045BD0C3F30A54EA
:10C76000C1F30A552C44A4F2F3340194A0FB025403
:10C77000C1F3130141F48011C3F3130343F4801395
:10C7800001FB024400FB034E840A970A44EA8154E9
:10C7900047EA8357A4FB076802958D0A05FB0785C6
:10C7A0004FEA932C04FB0C542705029D4FEA0658D0
:10C7B00047EA1637B5EB08056EEB070C870E920EAD
:10C7C00047EA811742EA8312A7FB0201B6EB0B018D
:10C7D00064EB00042B0D43EA0C335E1844EB1C5051
:10C7E000DA465146E7FB0201C5F313044FEA0B3367
:10C7F00043EA14534FEA0432019C43EA0603A4F1CE
:10C800000C040294009CCDE900B400F033F903B0AD
:10C81000BDE8F08F00200146F9E72DE9F04D81EAEF
:10C82000030404F0004B21F0004514464FF0000AC9
:10C8300023F0004150EA050220D054EA01021DD045
:10C84000C5F30A570246C5F31303C1F31300C1F33E
:10C850000A5640F4801543F48013A7EB0608101B1A
:10C86000D64608F2FD3873EB050002D308F1010843
:10C8700001E092185B41B8F1000F03DA0020014695
:10C88000BDE8F08D00204FF48011064684460EE08E
:10C89000171B73EB050705D3121B63EB0503064358
:10C8A0004CEA010C49084FEA300092185B4150EA0B
:10C8B0000107EDD152EA030012D082EA040083EAB4
:10C8C0000501084305D0101BAB4106D2012200230D
:10C8D00006E000224FF0004302E06FF00102531027
:10C8E0001AEB06004CEB085110EB0A0041EB0B0170
:10C8F000BDE8F04D00F0AFB80EB5C10F80EAE070B2
:10C900000844CA07002140F233438DE80E000A466E
:10C910000B4600F0AFF803B000BD0EB540F2334156
:10C9200002910021CDE900110A460B4600F0A2F861
:10C9300003B000BDC1F30A5210B5C1F3130140F2B8
:10C94000FF3341F480119A4201DA002010BD40F219
:10C9500033439A42A2F2334203DC524200F059F8C8
:10C9600010BD904010BD30B50B460146002020227E
:10C97000012409E021FA02F59D4205D303FA02F5EC
:10C98000491B04FA02F52844151EA2F10102F1DC4C
:10C9900030BD2DE9F05F0546002092469B46884653
:10C9A0000646814640241BE028464146474622462B
:10C9B00000F02FF853465A46C01A914110D3114641
:10C9C0001846224600F016F82D1A67EB01084F466C
:10C9D00022460120002100F00DF817EB00094E411E
:10C9E000201EA4F10104DFDC484631462A464346B6
:10C9F000BDE8F09F202A04DB203A00FA02F1002073
:10CA000070479140C2F1200320FA03F3194390408C
:10CA10007047202A04DB203A21FA02F000217047F7
:10CA200021FA02F3D040C2F1200291400843194696
:10CA30007047202A06DBCB17203A41FA02F043EA7E
:10CA4000E07306E041FA02F3D040C2F120029140C7
:10CA500008431946704710B5141E73F1000408DA34
:10CA6000401C41F1000192185B411A4301D120F0B2
:10CA7000010010BD2DE9F04D92469B4611B1B1FA6F
:10CA800081F202E0B0FA80F220329046FFF7B2FF66
:10CA900004460F4640EA0A0041EA0B0153465A4653
:10CAA000084313D0114653EA010019D0C8F14002DF
:10CAB0005046FFF7AEFF05460E46504659464246E1
:10CAC000FFF798FF084305D0012004E020463946CF
:10CAD000BDE8F08D0020054346EAE0762C4337435D
:10CAE0000A986305E40AA0EB08000022FD0A44EA64
:10CAF00047540A3002D500200146E9E70105101924
:10CB00006941DDE9084500196941BDE8F04DA2E73A
:10CB1000C1F30A52C1F3130140F2FF3341F4801113
:10CB20009A4202DA00200146704740F233439A42AB
:10CB3000A2F2334202DC5242FFF76BBFFFF75ABF4B
:10CB400030B5041E71F1000404DB4FF00044404294
:10CB500064EB0101141E73F1000405DB1C464FF069
:10CB60000043524263EB0403994208BF904230BD38
:10CB7000064C074D06E0E06840F0010394E807002A
:10CB800098471034AC42F6D3FFF73EFCBC330200AA
:10CB9000DC33020030B58C1810F8012B12F00F03B3
:10CBA00001D110F8013B120906D110F8012B03E066
:10CBB00010F8015B01F8015B5B1EF9D101E001F89F
:10CBC000013B521EFBD1A142E6D3002030BD000044
:10CBD0002DE9FC5F0025DFF83491A8464FF48076FC
:10CBE00001242F46304605F033F838B1D9F8040354
:10CBF000204203D0304605F021F82543361D64005D
:10CC00007F1CB6B2082FEDD34FF4BE74204605F05A
:10CC10001FF838B1204605F011F83D4845F00045B1
:10CC2000D0F800803B4E15F0FF0F14D001270024F0
:10CC30002F420CD009EB8401D1F81005D1F8101562
:10CC4000C0F3042056F82420C1F3014190477F002F
:10CC5000641C082CECD3002D56DA00200190401EF5
:10CC60004CE0701910F8501F90F9000021F0C0043A
:10CC7000401C38D0012000FA04FA1AEA090F32D019
:10CC80004FEA911B204602F03DFE56F8200000902E
:10CC900010B9BBF1030F26D15146BBF1030F02D1EE
:10CCA000019808430190A00000F1A040D0F80007CF
:10CCB0001AEA080FC0F3014002D0022802D012E0A5
:10CCC000032810D1BBF1030F07D102281AD002218B
:10CCD000204604F09CFF7F1CFFB2009818B1009A18
:10CCE0005946204690476D1C042DBAD3002F0BD017
:10CCF00007480068404507D08046019800278146D4
:10CD00003D46AEE70321E3E7BDE8FC9F006000403D
:10CD100010050050E42A0020014800687047000018
:10CD20009020002000F01F02012191404009800066
:10CD300000F1E020C0F88012704700F01F020121CE
:10CD400091404009800000F1E020C0F800117047D8
:10CD500000F01F02012191404009800000F1E02015
:10CD6000C0F8001270474907090E002806DA00F0E3
:10CD70000F0000F1E02080F8141D704700F1E02062
:10CD800080F800147047000007480021C0F84011E7
:10CD9000C0F84411C0F84811C0F84C11C0F8001197
:10CDA000C0F8041105F06EBF0010014070B50D48C9
:10CDB0000B4C05464FF48C7104F052FF00280ED046
:10CDC0000026C5F81861A07EFF2801D004F02EFFD0
:10CDD00066762671201D2168BDE87040084770BD49
:10CDE000D02D00200030004005F0E8BE074810B507
:10CDF000406830B18047002807D0BDE8104001F0FE
:10CE0000DFBCBDE8104004F09DBA10BDFC2100203D
:10CE10000A4910B5084808600949086000F014F88C
:10CE200000F0D2FC07490120087000F0E5FCBDE8E5
:10CE3000104000F01DB800009C2E0020342200207D
:10CE40008022002010220020704700000148007856
:10CE50007047000070220020034BDA880A8000210E
:10CE6000D9800249FFF77ABB702200200C2F0020E6
:10CE700070B5264D0020287000F084FA244C6F22F3
:10CE8000611C012000F05CFC296920206F220873DE
:10CE9000611C012000F006FD05F12004206800F06F
:10CEA00075FBA07900F0FCFBE07900F073FA207AC2
:10CEB00000F02AFB607900F0DBFB607A00F084FA76
:10CEC00040F2FF3000F016FC207E00F037FB00201F
:10CED00000F092FA0F492068884207D9002000F03C
:10CEE000DBFA002000F0EEFA072006E0802000F0D8
:10CEF000D3FA012000F0E6FA1420207100F06AFB5A
:10CF0000BDE87040012000F0A5BA000070220020AA
:10CF10009C2E0020008F42332DE9F047FA4C012669
:10CF20002DED048B002782B02078DFF8E083B14636
:10CF30004FF0020A04F120050B2808D2DFE800F0C8
:10CF4000060850A1EEEDECEB07EAE9000026FDE152
:10CF5000012000F07FFA20699D214174112000F02A
:10CF60009BFCE87A012828D02169FF2081F8240061
:10CF7000206990F82410242000F08EFC2169022200
:10CF8000402001F83D7F4F7000F08CFCA87A01280A
:10CF900024D02069C17B41730D2000F07DFC052069
:10CFA00000F058FA4FF48071D948FFF7FEFA68692B
:10CFB0006061FFF7B1FEE06073E02169287B81F8D2
:10CFC00024001C201C3100F0B7FB2069007F00F01A
:10CFD0003F0158F8210000F0D9FAC9E70620DFE741
:10CFE00000F0E0FB012818D1FFF796FEE060E87A38
:10CFF00001280CD121691C201C3100F09DFB206907
:10D00000007F00F03F0158F8210000F0BFFA4021F6
:10D01000122000F041FC0320207000F0CBFB04271D
:10D02000012804D18021122000F036FC277000F086
:10D03000C2FB012819D1FFF76FFEE060E87A0128F2
:10D040000CD121691C201C3100F076FB2069007F87
:10D0500000F03F0158F8210000F098FA0221122058
:10D0600000F01AFC00F080F96070A87A012807D15E
:10D07000FFF752FEE168401A6169884200D92770C3
:10D0800064E121691220123100F056FB2069807C96
:10D0900080060CD52021122000F0FEFBA87A012882
:10D0A00002D084F800A051E184F800904EE1694676
:10D0B000192000F041FB9DF80000010605D5C04392
:10D0C000401CC0F38500404200E0800820712169C7
:10D0D0001A201A3100F030FB8E499FED8F8B2868A3
:10D0E000884294F9040050D29FED8D9B4FE000BF21
:10D0F000FFF702FC41EC180B2069807EFFF70DFC66
:10D1000053EC192BFFF770FA41EC100B53EC182B72
:10D1100011E00DE1E2E0DBE0B7E065E060E020690E
:10D12000807EFFF7FAFB53EC182BFFF704FB53EC60
:10D13000192B41EC100B51EC100BFFF755FAC4E919
:10D140000601A87A012825D021691020103100F0AD
:10D15000F3FA687A012833D021691320133100F0E3
:10D16000EBFA2069C17CE180017C41730D2000F065
:10D1700093FB2069C17C664800F020FBA87A012857
:10D180002BD084F800A00226E0E09FED679B0028EA
:10D19000C5DAADE72069C17B41730D2000F07CFB4F
:10D1A000687A012808D021691320133100F0C4FAED
:10D1B0002069C17CE180DEE7206990F82210F9E760
:10D1C000206990F82210E180017C41730D2000F06D
:10D1D00063FB206990F82210CDE784F80090D2E735
:10D1E00084F800900326B1E0012000F033F9E87ADA
:10D1F000012837D02069F721417480F82470206914
:10D2000090F82410242000F047FB2069417C112075
:10D2100000F042FB2069217A80F82210222000F0E1
:10D220003BFB2069394687730E2000F035FB2069EF
:10D23000817B41730D2000F02FFB206990F82210B4
:10D24000334800F061FB21694120022201F83D0FC3
:10D250004020487000F026FB032000F0FBF8062079
:10D26000207073E02169F5204874287B81F8240040
:10D270001C201C3100F060FA2069007F00F03F01A3
:10D2800058F8210000F082F9B9E700F08BFA012884
:10D2900005D10821122000F0FFFA0720207000F0CD
:10D2A0008AFA012852D1E87A01280CD121691C2080
:10D2B0001C3100F041FA2069007F00F03F0158F86E
:10D2C000210000F063F90221122000F0E5FA3DE0B0
:10D2D000012000F0BFF82770042637E0012000F09D
:10D2E000B9F82069FA214174112000F0D5FA2169BA
:10D2F0000222402001F83D7F4F7000F0D3FA072052
:10D3000000F0A8F80A20ABE770220020F0320200FB
:10D310000C2F0020008F42331B9E5E29CB10F13F63
:10D3200000000000008064C00000000000A063C096
:10D3300000F042FA012809D10421122000F0ACFAD1
:10D3400000F03BFA012807D02770072602B03046CC
:10D35000BDEC048BBDE8F0870121122000F09CFA9F
:10D3600084F800900826F1E710B5054C0C202169DF
:10D370000C3100F0E1F92069007B400910BD00008C
:10D38000702200200248016942203F3100F0D4B9E8
:10D390007022002070B50A4D04461D2029681D31F9
:10D3A00000F0CAF92868417F01F0F10141EA440127
:10D3B000C9B241771D2000F06FFA0248C47170BDF8
:10D3C000802200209022002070B5094D04461D20C7
:10D3D00029681D3100F0B0F92868417F01F0FE0195
:10D3E000214341771D2000F057FA0248447270BD76
:10D3F000802200209022002070B50A4D044626208D
:10D400002968263100F098F9286810F8261F01F0E5
:10D41000F70141EAC4010170BDE87040262000F028
:10D420003BBA00008022002070B5094D044631202F
:10D430002968303100F080F9286810F8301F01F0B9
:10D44000F80121430170BDE87040312000F024BA9A
:10D450008022002070B50F4C0546002021694978D4
:10D4600021F0F801A1708D4213D0032D00D10120CD
:10D47000E178884202D0E07000F04BFA20694178F0
:10D4800001F0F80129434170BDE87040012000F02F
:10D4900003BA70BD7022002070B5094D0446092002
:10D4A0002968093100F048F92868417A01F07F01C4
:10D4B00021434172BDE87040092000F0EDB9000041
:10D4C0008022002070B50F4C05464D20216849315F
:10D4D00000F032F921680920093100F02DF92168A6
:10D4E000487A00060BD51DB15FF0870081F849002E
:10D4F00091F84910BDE870404D2000F0CDB984206E
:10D50000F4E700008022002070B50A4D04461E207A
:10D5100029681E3100F010F92868817F01F0FB01B5
:10D5200041EA840181771E2000F0B6F902480472B6
:10D5300070BD0000802200209022002010B504461B
:10D5400005482146006880F82240222000F0A4F916
:10D550000248047610BD00008022002090220020A6
:10D5600070B5094D0446022229682020203100F0C0
:10D57000E7F82968200A022201F8200F20204C70C9
:10D58000BDE8704000F08EB9802200200D4910B532
:10D590000860FFF7C2F99FED0C1B53EC112BFFF74E
:10D5A0003CF9FFF7C7F90A49020C096801F8062F90
:10D5B000020A4A7088700322BDE81040062000F07D
:10D5C00071B90000902200200000000080844E40CD
:10D5D0008022002070B5244D0446092029680931B5
:10D5E00000F0AAF829684D20493100F0A5F8286814
:10D5F000417A0A0628D590F8493087229A4303D009
:10D60000022C0EDA02240FE0052C01DA052402E0D8
:10D61000142C00DD142401F0F00141F07001621FB0
:10D6200007E0112C00DD112401F0F00141F0700140
:10D63000A21E02F00F0211434172C9B2092000F08C
:10D640002BF90A48047170BD4FF0FF32944201DAA1
:10D65000144602E00E2C00DD0E2401F0F00141F032
:10D660007001621CE5E7000080220020902200206B
:10D6700070B5094D04461D2029681D3100F05CF885
:10D680002868417F64F31F11C9B241771D2000F063
:10D6900003F90248447170BD8022002090220020CE
:10D6A00070B504460C2801D90C2408E0062C02D2DF
:10D6B0004FF0060400E002D14FF0050001E04FF00A
:10D6C0000300FFF7B1FE094D1E2029681E3100F04E
:10D6D00033F82868817F64F31F11C9B281771E2057
:10D6E00000F0DAF80248847170BD0000802200204A
:10D6F0009022002070B50C4D0446022229681E209D
:10D700001E3100F01DF82968032202EA142211F8E4
:10D710001E0F00F0FC00104308704C70BDE8704014
:10D7200002221E2000F0BEB8802200200149012004
:10D730000870704770220020012200F001B800003C
:10D74000F0B5C3B00E4607461446842122A8FEF762
:10D750002CFF842101A8FEF728FF10484FF48055C4
:10D760000560022004F08EF807F07F008DF8880035
:10D77000601CC2B201AB22A90948009204F046F92C
:10D78000022004F07FF80548001F056022460DF1D5
:10D7900005013046FEF7E2FE43B0F0BD0C05005037
:10D7A0001432020002480068C0F3004070470000D5
:10D7B0001005005070477047704770470A46014691
:10D7C0000020FFF7BDBF000010B5012000F054F8A5
:10D7D000FFF7A2FA4FEA0004FFF79EFAA042FBD03F
:10D7E000002000F049F8FFF797FA0446FFF794FA93
:10D7F000001B0628FAD310BD70B51C494A78824236
:10D8000032D0487008701A4C1A4D00284FF00000B2
:10D8100016D0FFF71FFE2068417841F0800141706B
:10D82000012000F039F80120FFF714FE21680020E4
:10D83000022201F83D0F4870402000F033F80CE060
:10D84000FFF708FE2068417801F07F014170012058
:10D8500000F022F80120FFF7FDFD691CBDE87040D3
:10D860006F220120FFF76CBF70BD00001022002066
:10D87000802200209C2E0020012804D00449002092
:10D88000C1F80007704703494FF400300860704743
:10D89000440000500C05005013B5012201A900F00E
:10D8A00001F81CBDF0B5C3B00F46064614468421EE
:10D8B00001A8FEF77AFE842122A8FEF776FE104822
:10D8C0004FF480550560022003F0DCFF46F0800035
:10D8D0008DF80400224639460DF10500FEF73EFEA4
:10D8E000641CE2B222AB01A90648009204F08EF853
:10D8F000022003F0C7FF0248001F056043B0F0BDDF
:10D900000C050050143202000A4601460020FFF7C1
:10D91000C9BF7047054810B58078002805D1FFF7CA
:10D9200005FFBDE81040FFF7F7BA10BD80200020CA
:10D93000411E092906D8044901EB800050F8040C67
:10D94000FFF724BE70470000B820002070B58D4856
:10D950000023021D0178101D0124062907D1157826
:10D960002D0704D10578C5F30315032D02D0062930
:10D9700004D00FE0854E844D75670EE015782D07B5
:10D9800008D10578C5F30315032D06D0042D04D066
:10D99000052D02D0062909D010E04FF08055D5F8AA
:10D9A00044527B4EC5F34235356002E015782D07B1
:10D9B00004D10578C5F30315032D02D0062906D03E
:10D9C00011E0744D2E6826F080762E600EE01578FA
:10D9D0002D0708D10578C5F30315032D06D0042DB6
:10D9E00004D0052D02D006290AD011E04FF0804561
:10D9F000C5F80C31C5F81031654D2D1F2B6002E0C4
:10DA000015782D0704D10578C5F30315032D02D031
:10DA1000062905D00CE05E4A0321643211600AE059
:10DA200015782D0704D10578C5F30315032D02D011
:10DA300006290DD06AE0584A05211160564978310F
:10DA40000C60554908310B603F21121D116002E046
:10DA5000117809075AD10078C0F30310052855D171
:10DA60004E4800684E4908604C48001D0068091D7A
:10DA700008604A4808300068091D086047480C30B3
:10DA80000068091D0860454810300068091D0860DD
:10DA9000424814300068091D08604048183000688A
:10DAA0003F49203108603D481C300068091D08606E
:10DAB0003A4820300068091D086038482430006862
:10DAC000091D0860354828300068091D0860334882
:10DAD0002C300068091D086030483030006830493B
:10DAE000403108602D4834300068091D08602B481B
:10DAF00038300068091D086028483C300068091D5E
:10DB00000860264840300068091D086021487438C4
:10DB1000016841F470010160BFF34F8FBFF36F8F55
:10DB20004FF01021D1F80002002803DBD1F80402E5
:10DB3000002822DA1B4A14601B480468002CFCD021
:10DB40001524C1F800420568002DFCD0C1F804423C
:10DB500001680029FCD0136001680029FCD0BFF3E4
:10DB60004F8F0C48F0380168104A01F4E06111430E
:10DB70000160BFF34F8F00BFFDE70E490C480860FE
:10DB800070BD0000E00F00F00DF0ADBA00C007401E
:10DB90003C050040FCED00E010560040040400107D
:10DBA00020C5004004E5014000E401400400FA05FE
:10DBB0000090D003AC2200202DE9F04700250E4C48
:10DBC00004274FF4A078BE034FEA050908EB85004F
:10DBD00006FA05F122584AB1D4F804230A4205D0C6
:10DBE00044F80090054A5168126890476D1CEDB2E8
:10DBF000BD42EBD3BDE8F08700900040F02D00203F
:10DC00000348007F08B105F0B3B905F02DB9000055
:10DC10003C2B00200FB4084B10B504A902AA0398AE
:10DC200000F0CEF8044602A9002000F060FC204677
:10DC300010BC5DF814FB0000EFE4010002E008C82E
:10DC4000121F08C1002AFAD170477047002001E076
:10DC500001C1121F002AFBD1704700002DE9FF5FB0
:10DC6000DDE90220010DDDF838B0024318D044F69A
:10DC70001050A1F2FF3141430D140F98012820D01C
:10DC8000A5EB0B00401C5FEA000A4FF00004474E72
:10DC9000DFF81C91A046504616D5CAF1000728E0CF
:10DCA0000F98012443A2012808D0002100980F9B5F
:10DCB000C0E90021C0E90243BDE8FF9F6FEA0B0104
:10DCC000F4E7CBF10000DEE7074612E0F80707D0E3
:10DCD0002246334640464946FEF72DFD804689469A
:10DCE0002246334610461946FEF725FD04460E46E9
:10DCF0007F10002FEAD1DDE90201BAF1000F4246A0
:10DD00004B4602DAFEF717FD01E0FEF786FD0446FA
:10DD10000E460022284BFEF713FF03D84FF0FF30CA
:10DD2000014607E00022254B20463146FEF75CFC09
:10DD3000FEF7EEFE102409E0002C0ADB0A22002385
:10DD4000FEF727FE019B30321A55641E50EA01028D
:10DD5000F2D1641C019AC4F1110314440F9A012AF0
:10DD600003D0012208430DD10AE0084304D000206B
:10DD70004FF0110B0F9080E7A3EB0B056D1E0DE02C
:10DD80005B4504DD4FF0000205F1010504E003DA14
:10DD90004FF00002A5F10105002AECD000980F9980
:10DDA000C0E90231C0E9004586E7000000002440D8
:10DDB0000000F03F300000000000F0430000E03FB2
:10DDC0002DE9FF4F95B09B468946064600250FE298
:10DDD000252877D100242746F84A0121059400E040
:10DDE000044316F8013F203B01FA03F01042F7D13B
:10DDF00030782A2811D06FF02F033078A0F130024C
:10DE0000092A16D8059A44F0020402EB820203EBB9
:10DE100042021044761C0590EFE759F8042B059256
:10DE2000002A03DA504244F40054059044F00204FE
:10DE3000761C30782E2816D116F8010F44F0040411
:10DE40002A280DD06FF02F023078A0F13003092B73
:10DE500009D807EB870302EB4303C718761CF3E7E7
:10DE600059F8047B761C30786C280FD006DC4C28DF
:10DE700017D068280DD06A2814D104E0742810D077
:10DE80007A280FD10DE044F400140AE044F4801421
:10DE900001E044F440147278824202D104F5801407
:10DEA000761C761C307866280BD013DC582877D087
:10DEB00009DC002875D04528F6D04628F4D047283C
:10DEC0001AD19DE118E0632835D0642879D06528FF
:10DED00012D195E1702873D008DC6728F1D0692849
:10DEE0006FD06E280DD06F2806D1B5E073282CD0E6
:10DEF000752875D0782874D05A46179990476D1CAC
:10DF000075E1C4F30250022809D003280DD0D9F8D6
:10DF1000001004280DD00D6009F1040967E1D9F85B
:10DF20000010EA17C1E90052F6E7D9F800100D8099
:10DF3000F2E70D70F0E719F8041B8DF800100020CF
:10DF40008DF80100EA46012003E059F804AB4FF0D8
:10DF5000FF3061074FF0000102D40DE008F101012C
:10DF60008846B9420FDA8045F8DB1AF80810002914
:10DF7000F4D108E008F1010188468142FADB1AF881
:10DF800008100029F6D105985B46A0EB080721464A
:10DF90003846179A00F094FA284400EB080507E089
:10DFA0004DE029E10DE01AF8010B5A461799904708
:10DFB000B8F10108F7D25B4621463846179A13E1BB
:10DFC00042E00A220092C4F302524FF0000A022AF1
:10DFD00008D059F804CB032A4FEAEC710AD00DE0BF
:10DFE00029E02AE009F1070121F00702F2E802C165
:10DFF000914609E00FFA8CFC4FEAEC71042A03D138
:10E000004FFA8CFC4FEAEC71002907DA0A4600212E
:10E01000DCF1000C61EB02012D2202E0220504D5A7
:10E020002B228DF80420012203E0E20701D02022F8
:10E03000F7E7904659E00A2102E010220DE0102196
:10E040004FF0000A00910BE010224FF0000A44F05C
:10E0500004040827009203E008224FF0000A00920F
:10E06000C4F30252022A05D059F804CB0021032A36
:10E0700008D009E009F1070121F00702F2E802C126
:10E08000914605E01FFA8CFC042A01D10CF0FF0C2C
:10E090004FF00008220728D5702806D0009B83F097
:10E0A000100353EA0A0305D00EE040228DF8042045
:10E0B000012208E05CEA010206D030228DF804203B
:10E0C0008DF8050002229046009B83F0080353EA76
:10E0D0000A030AD15CEA010201D1620705D53022A8
:10E0E0008DF804204FF001087F1E582804D034A07A
:10E0F00003900EA802900DE036A0F9E75346604663
:10E10000009AFEF746FC84460398825C0298401E03
:10E11000029002705CEA0100F0D1029806A9081A88
:10E1200000F1200A600702D524F4803400E00127C2
:10E13000574502DDA7EB0A0000E0002000EB0A01D2
:10E14000009005984144401A0590E00306D45B46D0
:10E150002146179A059800F0B3F90544002706E018
:10E1600001A85A46C05D179990476D1C7F1C474512
:10E17000F6DBE0030CD55B462146179A059800F0C4
:10E180009FF9054404E030205A46179990476D1CCA
:10E190000099481E00900029F5DC08E002980299D9
:10E1A0005A460078491C0291179990476D1CBAF1A4
:10E1B0000001AAF1010AF1DC65E100000928010073
:10E1C00030313233343536373839616263646566ED
:10E1D00000000000303132333435363738394142AF
:10E1E000434445460000000000F058F90544761C01
:10E1F000307800287FF4ECAD19B02846BDE8F08FE8
:10E20000620700D4062709F1070222F0070CFCE898
:10E210000223E14603F000485FEA080C02D00FF247
:10E22000702C0DE05FEA045C02D50FF2682C07E069
:10E230005FEAC47C02D00FF2602C01E0AFF2700CF8
:10E240004FF0FF3823F00043CDF850C065280CD0C4
:10E2500006DC452809D046281DD047283DD13DE0A1
:10E26000662818D067287ED138E00021112F01DB05
:10E27000112000E0781CCDE9000106A90EA8FFF7E7
:10E28000EDFCDDE90F010E9A03910021009207F1E8
:10E29000010A04914DE04FF000400097CDE90110D4
:10E2A00006A90EA8FFF7DAFCDDE90F0203920E9B28
:10E2B00011990022DDF80CA00093049211B9791C89
:10E2C00000EB010AB7EB0A0004D4C0F1FF3007F1FC
:10E2D000010A0490AAEB0700019044E0012F00DA44
:10E2E00001270021112F01DD112000E03846CDE982
:10E2F000000106A90EA8FFF7B1FCDDE90F010E9A97
:10E300000391002104910092BA4621070CD403998D
:10E31000514500DA8A46BAF1010F05DD009AAAF1EB
:10E320000101515C302908D0B84202DA10F1040F23
:10E3300006DA0121CDE9011015E0AAF10101E9E7B2
:10E34000002805DC049901440491AAEB000102E0D5
:10E35000411C514500DD8A460499401A401C019039
:10E360004FF000400290200704D40198504501DB93
:10E37000CDF8048000208DF84F0002980DF14F0772
:10E38000B0F1004F25D02B200E9002984FF00208DC
:10E3900000280CDA404202902D200E9007E00A215E
:10E3A0000298FEF7E0FA3031029007F8011DB8F14B
:10E3B0000001A8F10108F2DC02980028EFD1791ED3
:10E3C0000E980870307800F0200040F0450007F803
:10E3D000020D12A8C01B00F107081498007800B1C4
:10E3E000012000EB0A01019801EBE071059841441E
:10E3F000401A401E0590E00306D45B462146179A5A
:10E40000059800F05DF805441498007818B15A4654
:10E41000179990476D1CE00324D55B462146179A57
:10E42000059800F04DF805441CE00498002807DB2F
:10E43000DDE90301884203DD0098405C179901E0A3
:10E44000179930205A469047049805F10105401C61
:10E4500004900198401E019004D12E205A4617992D
:10E4600090476D1CBAF10001AAF1010ADDDC05E05C
:10E4700017F8010B5A46179990476D1CB8F1000127
:10E48000A8F10108F4DC5B462146179A0598ABE633
:10E490002D0000002B000000200000002DE9F041BD
:10E4A000044600251E461746880404D405E0394674
:10E4B0002020B0476D1C641EF9D52846BDE8F081C8
:10E4C0002DE9F041044600251E469046C80301D5BB
:10E4D000302700E02027880404D505E0414638466F
:10E4E000B0476D1C641EF9D52846BDE8F0810A6866
:10E4F000531C0B60107070472DE9FC5F00251688D7
:10E5000007461580406B14468946A8464FF00C0A12
:10E5100011234FF0020B98B101784846032E48D3DF
:10E5200080F800B02288521C92B222808354228844
:10E53000521C92B2228009F802102088401C2080D0
:10E540003A6BDAB12088494600F11205B54230D85D
:10E550000B5420881023401C80B220800B5420884C
:10E56000401C20800F202388155C401ECD5423883A
:10E5700040B25B1C23800028F5DA454697F82E0050
:10E5800030B133462246494602F04AFF050011D118
:10E5900097F82D0030B132462146484600F0DCFCA9
:10E5A000050007D1B87820B32088C846001DB042C6
:10E5B00002D95046BDE8FC9F684679DF0028F9D1B2
:10E5C0002188032008F8010020881921401C80B20E
:10E5D000208008F800102088401C80B2208000EBCA
:10E5E0000801BDF8000004F02FFD01462088084412
:10E5F0002080F878B8B1228897F90310D31C4846D8
:10E60000B342D6D800F802B022880123521C92B23D
:10E61000228083542288521C92B2228009F8021070
:10E620002088401C20807868B8B1218890F90020AB
:10E63000CB1C4846B342BCD800F801B021880A235D
:10E64000491C89B2218043542188491C89B2218008
:10E6500009F801202088401C2080388950B1CDE97C
:10E6600000464B460622022107F1080004F05FFD38
:10E6700005009FD1388A50B1CDE900464B460722AC
:10E68000032107F1100004F052FD050092D1388BF0
:10E6900050B1CDE900464B461522142107F1180070
:10E6A00004F045FD050085D1386A30B13346224675
:10E6B000494601F0D7FA0500DBD1786A30B133461C
:10E6C0002246494603F058F80500D2D197F82C00AD
:10E6D00038B1334622464946384603F019FF050053
:10E6E000C7D1387838B1334622464946384603F018
:10E6F00075F80500BDD128465CE710B5012202215E
:10E70000002000F0A1FF08B1072810D10722022144
:10E71000012000F099FF08B1072808D100210A2242
:10E72000084600F091FF08B1072800D1002010BD75
:10E730003EB50446042001901748029069462046E1
:10E7400001F036FE38B1A0F50041403902D000BFDB
:10E7500000F036F83EBD10480C38017BC90715D0D3
:10E760004FF6FF720C21C088A7DF78B1A0F54051A9
:10E7700002390BD0082809D0891E07D0112805D0EE
:10E7800043F20141884201D000F01AF8204601F01E
:10E79000C5FD0028DCD13EBD8C200020BFF34F8F8B
:10E7A00005480168054A01F4E06111430160BFF3C7
:10E7B0004F8F00BFFDE700000CED00E00400FA05FC
:10E7C0000EB500210091CDE901106A4644F2010026
:10E7D000FFF7E4FF0EBD0000014B1B681847000067
:10E7E000C02A002038B50C46074BA268097802EB16
:10E7F000420253F82250054A126A0092024604F17E
:10E8000008002369A84738BDB82D0020A0210020AA
:10E81000074910B50A7802EB820201EB8201091D5B
:10E82000FFF7E0FFBDE81040042003F0CFBF000079
:10E830005C2B002070B50F4B054605201C785E78D8
:10E84000A64216D01C7818789E88B04201DA401C87
:10E8500000E0002018705E88D86804FB060028607D
:10E86000986800EBC4039B880B8050F8340010605C
:10E87000002070BDEC2100200EB504E0029ABDF826
:10E8800004100098904702AA01A96846FFF7D2FF3A
:10E890000028F3D00EBD000030B5CB0008339DB288
:10E8A00093074FF0000401D0072030BD044B9A605D
:10E8B0002A44DA605C701C7058809980002030BD5A
:10E8C000EC210020074B9B6823B12AB120B10068DE
:10E8D000037C1BB1082070470720704741744261D8
:10E8E00000207047C42100202DE9F047804699465A
:10E8F00014460F4690074FF0000634D11C4D8CB3E0
:10E9000003F006FD0320C5F81490287004F11800E8
:10E91000002107EB4703AC6004EBC102491C1670F1
:10E9200056709770506000EBC3000329F4DBEE6073
:10E930006E70AE701420FEF7F5F906211420FEF774
:10E9400012FA1420FEF7F9F90A49C1F800800621ED
:10E950001120FEF708FA0748001F00682861002010
:10E96000BDE8F08701E00720FAE7AE60FBE70000B2
:10E97000C4210020081501402DE9F843DFF870900C
:10E980000D461746D9F80810044651B34CB3052D6F
:10E9900002D20720BDE8F883606910B3607C0128CB
:10E9A00021D0002604F090FBD9F80810804601EB36
:10E9B000C800694604F0A7FBB8B1012100F8041BA8
:10E9C0000C4910C0096880E8E200D9F8081001EB92
:10E9D000C8009DF8001041701420FEF7B9F900201E
:10E9E000D8E70820D6E72E46DCE70420D2E700006F
:10E9F000C421002004150140F8B5124E0446B16848
:10EA0000E1B1DCB16069C8B10027277404F05CFB98
:10EA10000546B068694600EBC50004F074FB78B1A8
:10EA2000022101704460B0689DF8001000EBC50041
:10EA300041701420FEF78CF93846F8BD0820F8BD67
:10EA40000420F8BDC4210020F0B50C4693B01F216E
:10EA50000726ADF80010ADF80410002750B1C178BA
:10EA600049070DD56A4602A9FFF746FD002808D1DF
:10EA700002AD02E00025ADF800706CB1E07810B195
:10EA8000304613B0F0BD01AA0AA92046FFF734FDB5
:10EA90000028F6D10AAA02E00022ADF80470BDF801
:10EAA0000400C3B2BDF80000C1B2284672DFE8E737
:10EAB00070B50D4604991646040040D0F6B341489F
:10EAC00000224271C0E90331242231463E48FDF75D
:10EAD00045FD00F0D5F83C493431A1F1100001604A
:10EAE0002031816038215C38FDF75FFD36482178A0
:10EAF00038380170A1788170E178C1706178417017
:10EB0000D4E90412C0E90412D4E90212C0E90212E5
:10EB1000D4E90612C0E90612616AD1B100F1AC0174
:10EB200000F1B80241628A60636A1B880B80616AE7
:10EB3000436A898899800021436A07E0FFE70E2035
:10EB400070BD666AB668765C5654491C9E888E42D3
:10EB5000F7D8A16AD9B11C4AAC32A2F10C018A6083
:10EB60008162A36A9B888B80A16A836A0988198065
:10EB70000021836A04E0A66AB668765C5654491C94
:10EB80009E888E42F7D894F82C1080F82C10216AB9
:10EB900049B10C4914310162226A52884A80216AC3
:10EBA000026A09881180616821B10649891D4160A6
:10EBB000616841602946BDE8704003483838FFF776
:10EBC00043BF0000002100208C28002010B50288DF
:10EBD0001D4C102A18D00021112A1BD01B2A18D135
:10EBE000007A002815D16079012820D0022824D08D
:10EBF000032824D004280CD12171E2680846002A99
:10EC000007D0BDE810401047817D012901D18088DF
:10EC1000208110BD6170808821898842F9D101204E
:10EC200006E021690029F4D0BDE810400847022021
:10EC300000F02EF80028F4D110BD0320F8E70320DF
:10EC400020710420F4E700000021002010B5022804
:10EC500001D0032810D1094C207800280CD00020C6
:10EC60002070607900F014F8002805D0216900298F
:10EC700002D0BDE81040084710BD00000021002070
:10EC80000248002181618183817770470021002043
:10EC90002DE9F04F744C87B00026607106A80696E7
:10ECA00003F0EAF80127082801D030B903E006A8EC
:10ECB00002F01CF918B9069808B12770C0E0FFF7F8
:10ECC000DFFF6A4DDFF8A0814FF0020A687808F193
:10ECD00018084FF0030B10B16079012806D0A8780E
:10ECE00058B16079012801D002281FD1E16819B11B
:10ECF000E7700820884700E0E6706079012806D1B7
:10ED0000687840B108F1010003F072F818B1607939
:10ED1000022802D00AE084F805A0A87820B108F102
:10ED2000010003F065F808B984F805B0287B4FF0BE
:10ED3000040920B96079032801D184F80590287E60
:10ED400020B96079042801D166712671E16841B16A
:10ED50006079032801D0042803D1287808B16078AD
:10ED6000C0B1A67018216846FDF71FFC8DF8006041
:10ED700001968DF808600396607901280ED002286C
:10ED800016D03A4E2436A6F15C0703281DD004287D
:10ED90004CD13AE0A77007208847E3E7ADF812604E
:10EDA000CDF804808DF80070ADF8106027713FE059
:10EDB000CDF804808DF800702889ADF81200A8887D
:10EDC000ADF8100084F804A032E0A88AADF8120073
:10EDD000288AADF810002548243004F00FFA18B145
:10EDE000287808B1607810B184F804B01EE01F489C
:10EDF0008DF808A0039687F8039000213838FFF7B4
:10EE000023FE00281DD105202BE0A88BADF81000B3
:10EE1000288CADF812001548243004F0EFF918B131
:10EE2000287808B1607878B184F80490607918B1D6
:10EE3000684673DF002804D1E16809B1207988476A
:10EE4000002007B0BDE8F08F08488DF808A00396B1
:10EE500087F8039000213838FFF7F6FD0028F0D13D
:10EE600006202071E2E70000002100208C2800200D
:10EE700070B5054601461C220F48FDF76FFB0F4C8D
:10EE800000262670286830B1016861604068A06083
:10EE9000201D7ADF02E00948001D7BDF00280AD12F
:10EEA0004FF6FF7060806670BDE87040044A002134
:10EEB0000448FFF707BD70BD7829002020210020FD
:10EEC000693002006832020070B51E4C06880025C9
:10EED0001B49E289102E15D01B4B112E1CD0122E6F
:10EEE00029D0502E17D130F8061F914213D14189F5
:10EEF000022910D1007B10F0010F11D0BDE8704045
:10EF000000F0F6BE83884B808369CB60C0690861DE
:10EF10004D70002AF2D070BD4FF6FF7048804D70E2
:10EF20001868FFF769FD0028F5D0A1690029F2D023
:10EF3000BDE8704008478268CA60C0680861DDE7C4
:10EF40002021002078290020683202000148006852
:10EF5000FFF752BD683202007CB5054608880C46B2
:10EF60000930904201D90C207CBD684671DF002831
:10EF7000FAD121880820685420881B21401C80B2C7
:10EF8000208029542088401C80B220802844DDF84D
:10EF900001100160BDF8051081802088801D80B2BD
:10EFA00020809DF8001001B1012129542088401CC7
:10EFB000208000207CBD000030B585B00D460400E7
:10EFC00039D0BDB36868A8B31C4B4FF6FF702080E2
:10EFD0000FCB0DF1040C8CE80F0041F23050ADF86E
:10EFE000000001A8811E63DF002821D1221D69468F
:10EFF0000120A0DF00281BD19DF80200A07120464F
:10F0000001F0EEF8002813D1204601F09BF800280B
:10F010000ED12946204601F031F9002808D1686850
:10F02000A062A86800B1E0620549012008700020D4
:10F0300005B030BDFFE70E20FAE700006C32020099
:10F04000342100203EB500283CD000293AD0826A05
:10F05000002A37D00A88102A23D0112A33D0502A08
:10F0600021D0512A2ED104460A4611F8060F022853
:10F0700028D14888238A984224D1907B042821D023
:10F0800006281FD005281DD02046891C02F02AFE24
:10F09000002817D0E16A002914D003B0BDE8304041
:10F0A0000847898811E0CA8803899A420AD1082250
:10F0B0008DF800200A7C12318DF808200191826AB7
:10F0C000694690473EBD4FF6FF7101803EBD00008E
:10F0D00030B585B028B30388A3F57F44FF3C22D028
:10F0E000124B1B78FBB1114B10255B1C00241D70CB
:10F0F00059709A7001250321ADF810100094019405
:10F1000002940394018AADF8001004A9CDE902131A
:10F110008DF80250ADF8044000886946A6DF05B0BE
:10F1200030BD0E20FBE70820F9E700003421002065
:10F130007FB5044601208DF8060041F60A00ADF8BF
:10F140000400454A01A90120A0DF00287ED12288C1
:10F1500004F13C0552B140482B46801C009042F619
:10F160002920616800F0D6FB002873D1228952B1B2
:10F1700039482B460A30009042F62420E16800F01E
:10F18000C9FB002866D1228A52B133482B4612307F
:10F19000009042F62520616900F0BCFB002859D19F
:10F1A000228B52B12C482B461A30009042F6272071
:10F1B000E16900F0AFFB00284CD1228C52B1264807
:10F1C0002B462230009042F62620616A00F0A2FB16
:10F1D00000283FD1228D52B11F482B462A30009083
:10F1E00042F62820E16A00F095FB002832D1216B1D
:10F1F00071B102A803F0B7FC17482B4632300090DB
:10F20000082202A942F6232000F084FB002821D125
:10F21000606B58B110492B463A3100910279016870
:10F2200042F62A2000F076FB002813D1A16B81B1B1
:10F2300002A802F007FE08482B4642300090072241
:10F2400002A942F6502000F065FB00E002E0002831
:10F2500000D1002004B070BD3C21002070B50446F0
:10F2600001F07CF92146124800F026F82046FFF70D
:10F270002BFE204600F052F90D4821466430FFF77E
:10F28000E1FE20880B4D102802D011280BD107E099
:10F29000072000F0FBF908B1FFF792FAA08801E01F
:10F2A0004FF6FF70E8802046BDE87040FFF78EBC47
:10F2B000542700208020002070B50A88102A23D00F
:10F2C000112A23D0502A1ED105468C1DC888698A70
:10F2D000884218D10F4800684FF400210D4A81433D
:10F2E000121D1160111D00F4002008606B68628916
:10F2F00004F10C0128469847207B10F0010000D053
:10F30000012085F8220070BD898801E04FF6FF7169
:10F31000818470BD0405005007B584B050B1828C63
:10F32000A2F57F43FF3B02D090F8222022B10820B3
:10F3300007B000BD0E20FBE7BDF81820142A01D944
:10F340000720F5E700220092019202920392428B7D
:10F35000039106A90291ADF8002001218DF8021059
:10F36000808C6946A6DFE3E738B50446086820606C
:10F37000486860604FF6FF70A08401208DF802009D
:10F380004FF6E0700D46ADF8000004F10802694642
:10F390000120A0DF00280FD12946204601F030FFD0
:10F3A000002809D12946204603F0FAFC002803D1A1
:10F3B0002946204602F0E2FF38BD70B504460D46EE
:10F3C0000846FDF7FDF82080656070BD00B519485E
:10F3D00087B00023406805904822174905A803F02C
:10F3E0003DFA08B1FFF7ECF96A460121002003F06D
:10F3F0001FFA08B1FFF7E4F901208DF80C000F485F
:10F4000003F03AF808B1FFF7DBF9684603F006FAB3
:10F4100008B1FFF7D5F90A4803F0F6F908B1FFF78C
:10F42000CFF9084803F034FA002801D0FFF7C8F9F3
:10F4300007B000BD0C3202005C260020E81F00204F
:10F440005DF20100552B02001CB5044681786A4626
:10F450000C4802F023FD002813D160780A49C0EB64
:10F46000C00001EB80001C231A46694602F0D2FD61
:10F47000054806494C30807A51F8202021466846DC
:10F4800090471CBD98210020742A00209032020071
:10F49000F8B505460820ADF8000001236A461C496E
:10F4A0002846AADF1B4800688047B12044DF08B126
:10F4B000FFF786F911DF08B1FFF782F94FF010244A
:10F4C000606913DF08B1FFF77BF9284600F0E4FD1F
:10F4D00001204FF0E0218205C1F88022D1F80031EF
:10F4E0005FF0000100FA01F21A420AD04AB202F0BB
:10F4F0001F0600FA06F55209920002F1E022C2F856
:10F500008051491C2029EDD3606900F005F8F8BD51
:10F51000302E0020E4210020FCF7F4BF10B51A4C77
:10F520000188606810290ED011292BD1401E60601F
:10F5300028D1FFF7E2F8002824D02168002921D043
:10F54000BDE810400847D0B900210122084600F06C
:10F550007BF808B107280FD107220221012000F013
:10F5600073F808B1072807D104220221002000F017
:10F570006BF820B1072802D0216801B18847606884
:10F58000401C606010BD0000F820002010B5032072
:10F5900000F09AF908B1062800D1002010BD000043
:10F5A0002DE9F04707460024244802E0641C042C9F
:10F5B00041D250F82420BA42F8D1042C3BD21F4843
:10F5C000DFF87C901F4E0C38A9F1140841B30129D3
:10F5D0000FD002292FD104EB440030444578002D90
:10F5E00029D0D8F81010002925D02846BDE8F047CA
:10F5F000084704EB4401755C0E44717861B1D8F89A
:10F6000004100F4A01EB81014900133A8068FFF7AB
:10F61000B3F908B988F80170B17809F80410DEE789
:10F620008068FFF7E9F904EB4401314419F804005C
:10F630008D78A842D3D0BDE8F087000038320200B0
:10F64000F42000202828002070B50023042810D2C0
:10F650000D4D00EB4004012A02D101290CD00022FB
:10F66000094E00EB4000304461B1012906D0022967
:10F6700006D00723184670BD0D30C2B22A55F9E7EF
:10F680004270F7E78270F5E728280020044A014617
:10F690000020127AD20702D0084600F003B8704763
:10F6A000E02000202DE9F84F854EDFF810A24FF43E
:10F6B000E01CF16807462CEA010C009100207168FB
:10F6C0000AF10404251D7F4B4FF400324FF4802BC8
:10F6D00001EB810E8146182F16D2DFE807F00C17D8
:10F6E000173A4E607083868F868FEAA0A0A0A0A0F4
:10F6F000CAD1D8E1EAEA009A4FF4F01191432160AF
:10F70000C5F8009086F80090BDE8F88FC4F800C0F6
:10F710004846C5F80090DAF800C08CF4F01C5FEAA7
:10F720008C3C09D522602860022F02D14FF4E160A1
:10F7300008E04FF47A6005E02A602060022F3CD098
:10F740004FF4C8706422B0FBF2F0414337700022DE
:10F750005EE0C4F800C04846C5F80090DAF800C082
:10F760008CF4F01C5FEA8C3C04D5226028604FF4D6
:10F770004870E7E72A6020601FE0C4F800C04846F0
:10F78000C5F80090DAF800C08CF4F01C5FEA8C3CFD
:10F7900002D522602860CCE72A602060D0E7C4F858
:10F7A00000C04846C5F80090DAF800C08CF4F01CA0
:10F7B0005FEA8C3CDED522602860C820C2E7C4F82E
:10F7C00000C04846C5F80090DAF800C08CF4F01C80
:10F7D0005FEA8C3C02D52260286001E02A6020604C
:10F7E000377014E0C4F800C04DE0DAF800002BEAEE
:10F7F0000002226000F48020286008E0DAF80000AF
:10F800002BEA0001216000F480202860714600226C
:10F810001868BDE8F84FFFF7AFB821602EE09846B2
:10F820005868FFF7E9F8D7F1110100D040B1F1684D
:10F8300001F4F0112160C5F80090C6F80C9063E760
:10F840004FF40022F26001290CD9C82011FB00F10D
:10F850006420B1FBF0F1706800224143D8F8040045
:10F86000FFF78AF8F16801F4F0112960C4F80090FC
:10F870004AE74FF4F0112160C5F80090377043E774
:10F880004FF4E01121604946C5F8009006E04FF4BE
:10F89000D01121604946C5F800905A462A60BCE75D
:10F8A0004FF4C01121604946C5F800904FF4C022C2
:10F8B000F4E74FF4F01129604946AEE70405005023
:10F8C000E02000202C32020070B500210C4D0124F4
:10F8D00055F82120920002F1A042D2F8006704FA04
:10F8E00001F3034000D0032326F4403646EA0343E5
:10F8F000C2F80037491C0429EAD3002070BD00007B
:10F90000383202000249084490F930007047000084
:10F91000E42A00202DE9F0438FB01E46DDF8589010
:10F9200015460F00804602D10020FEF749FF15B9A9
:10F930000020FEF745FF1C216846FCF736FE002438
:10F940009DF80000039440F002008DF800000120B3
:10F9500001948DF83600049405940694ADF8348033
:10F960000C9430788DF8300070788DF831009DF867
:10F970003200142120F00600801C20F019008DF8C0
:10F98000320007A8FCF711FE0DA807900CA80890FC
:10F990000748ADF82450ADF82640ADF828500B9735
:10F9A0004B4607AA69460088A2DF0FB0BDE8F08386
:10F9B0003C2100202DE9F0413A48017801EB81011A
:10F9C00000EB8104D4E9030600EB40013648241D16
:10F9D00000EB8100B0F808804589476802F0E5FA3D
:10F9E000B6FBF0F100FB116080B3002008FB057747
:10F9F0006188A288DFF8B48011448D190022C8F80C
:10FA0000102040B102F0D1FA6188884221D0BD4275
:10FA100001D1A088E8B1A06803281AD002F0C5FA85
:10FA2000A18844463144B1FBF0F200FB121080087B
:10FA3000C8F80C0002F0B9FAB5FBF0F100FB115068
:10FA400078B10020BD4228D068B126E0FFE7012050
:10FA5000CCE702F0AAFAB6FBF0F10320C8F81410C4
:10FA60001CE00120EEE7ADB2BEB202F09EFAB6FB9A
:10FA7000F0F702F09AFAB5FBF0F0874201D1701B63
:10FA800009E002F092FA064602F08FFAB5FBF0F1B7
:10FA900000FB1150301A800820610220BDE8F041BF
:10FAA00002F094BE5C2B0020B82D0020A021002085
:10FAB0000648017801EB810100EB81000079042800
:10FAC00001D000F059B8012002F080BE5C2B00206C
:10FAD0000A480B4A017801EB810100EB8100C188E3
:10FAE00011620079012805D0032801D0042804D12F
:10FAF000FFF760BF012002F069BE70475C2B002059
:10FB0000A021002000EB80020548002100EB8200CC
:10FB100002220171C180C0E9032141610181704766
:10FB20005C2B00202DE9F041114D069E6C781E2CB7
:10FB30001BD02F783C441E2C00D31E3C04EB8404C5
:10FB400005EB840420716261D1E90001C4E903017D
:10FB5000E38026816878401C68700648007808B900
:10FB6000FFF7B6FF0020BDE8F0810420FBE70000AE
:10FB70005C2B0020A021002010B50E4C207800EB5B
:10FB8000800004EB80010020091DFEF72BFE207889
:10FB9000FFF7B8FF6078401E60702078401CC0B24C
:10FBA00020701E2801D100202070BDE810400020E8
:10FBB00002F00CBE5C2B00202DE9F05F2648C168E6
:10FBC000F1B3DFF898B00E688146DBF800400769B2
:10FBD000C078E11B21F07F45ED1CB0B9DFF88080D3
:10FBE0004FF48030C8F84403C8F804031120FDF72F
:10FBF00099F81120FDF7A1F84FF0010AC8F800A00C
:10FC00002F20FCF743FC89F803A0B54200D235460B
:10FC1000124BE8193C3320F07F401860DBF80010ED
:10FC20005A46091B21F07F41001B20F07F40C91C70
:10FC300081420FD9106818602F20FCF727FC00E0E4
:10FC400004E0BDE8F05F1120FDF782B8BDE8F05F89
:10FC500002F05EBBBDE8F09FC42100200415014006
:10FC6000001001402DE9F04117880646B81D1446E2
:10FC70000D46984202D90C20BDE8F0813188072258
:10FC800006290AD34FF4486C4FF6FF73614501D93A
:10FC9000994202D17088062801D21046ECE76045EF
:10FCA00001D99842F9D1994203D0984201D08142BA
:10FCB000F3D80520E85520881221401C80B220800E
:10FCC00029542088401C80B220804119308803F0DC
:10FCD000BBF92188084480B220804119708803F064
:10FCE000B3F92188084420800020C5E7FEF768BDED
:10FCF000F8B5134801F05EFB114D0026114C0C3D88
:10FD000030B16169B9B101208DF80000684611E099
:10FD1000287820B1616971B18DF80060F6E76878E4
:10FD200058B1A168084800220068FEF725FE10B10E
:10FD3000A16901B188472E70F8BD6168F2E7000043
:10FD40002C210020782900206832020070B5094B70
:10FD5000044608209E7A00250E4208D0A4F57F4074
:10FD6000FF3802D01889A04202D10020156070BD72
:10FD7000052070BDB42A002000EB40020748012195
:10FD800000EB820081724FF6FF710181FF21C17289
:10FD9000002101608180817170470000B42A002039
:10FDA0001FB5112001F01FFF0C2001F01CFF0F20D8
:10FDB00001F019FF0D2001F016FF00210E2001F0C7
:10FDC00009FF0021102001F005FF0B2001F00BFFBF
:10FDD000114C4FF400602060182001F004FF4FF038
:10FDE00080702060062001F0FEFE4020206032205E
:10FDF00001F048FD094B0FCB8DE80F000C208DF86A
:10FE000003000648064A6946083801F06DFD0028DF
:10FE100001D0FEF7D5FC1FBD080500501C320200C2
:10FE2000A528020010B5134C207900071ED4606984
:10FE3000401C6061E06808B104200AE001F0C8FAE3
:10FE400008B1022005E0206960B16068C10704D0F4
:10FE50000320BDE8104002F073BE40F00100606076
:10FE60000020F6E7BDE81040FFF722BEBDE81040D5
:10FE700002F05CBEA021002006494868020707D4B2
:10FE8000820702D540F001004860022002F058BE0F
:10FE900002F04CBEA02100202DE9FC410E46044694
:10FEA00081786A46254801F0F9FF002828D160785A
:10FEB000234F00EB400007EB8000807A400621D4FE
:10FEC000022E1FD0012E1FD01E4DA0781E49C0EB60
:10FED000C00001EB800100231C226846A847A8B19E
:10FEE000022E0DD02078164900EB40000C3101EBBA
:10FEF00080001649807A51F82020214668469047B4
:10FF0000BDE8FC81124DE0E7124DDEE7022EF7D08E
:10FF1000607800EB400007EB8000817A21F040011F
:10FF20008172074960784039C0EBC00001EB800165
:10FF30001C231A466846A847D4E7000098210020F1
:10FF4000B42A0020B52A0200B02900208032020025
:10FF500041220200712102002DE9F04705250F4FD3
:10FF60009046894606460024C4EBC40007EB800097
:10FF700036B1072231461030FCF729FB18B106E0F4
:10FF8000018B414503D10025C9F8004002E0641C03
:10FF9000072CE9D32846BDE8F0870000B0290020EF
:10FFA0007CB5054681B26A46074801F077FF040038
:10FFB00008D17421684601F09BFF040002D1284655
:10FFC00001F020FF20467CBD9821002070B5054639
:10FFD0000C46100001D0FEF7F3FB2078152802D163
:10FFE0002846FEF7A5FB002070BD00001FB58DF868
:10FFF0000C0001F0DFFF08B1FEF7E2FB03A800F000
:020000040002F8
:1000000061FD08B1FEF7DCFB0020CDF805008DF89E
:1000100009009DF80500694620F07E0040F00100CF
:10002000303020F080008DF8050007208DF80600A4
:1000300010208DF807000648009001208DF804007C
:10004000044800F0A5FE002801D0FEF7B9FB1FBD53
:10005000CDFF01008420002001B50449684600F06E
:1000600063FA002801D0FEF7ABFB08BDE8210020B1
:1000700010B5097849B103220121FFF729F80028BA
:1000800008D0BDE81040FEF79BBB0088BDE81040DB
:10009000FFF7FEB910BD000030B58BB00024234936
:1000A000009400F0E3FC002811D101A91F4800F0E2
:1000B00081FC70B11E491D4800F068FD08B1FEF7D3
:1000C0007FFB1B4800DF002801D0FEF779FB0BB057
:1000D00030BD0598164D102201692960818AA980DA
:1000E000807DA871E81D0599FCF738FA112205F109
:1000F00018000199FCF732FA019850F8121F45F8E0
:100100002A1F4168696000892881094800DF08B119
:10011000FEF756FB0120009004200890CDF824D073
:1001200007A90248079400F097F9CCE7E8210020DE
:10013000FC2D002070470000014908607047000056
:10014000E421002030B58FB005461C216846FCF73D
:100150002CFA00249DF80000019440F018008DF85E
:1001600000000394049405940694A8798DF8360051
:1001700041F23150ADF834000C949DF83000142158
:1001800020F0FF008DF830009DF8310020F00F00C6
:10019000401C20F0F00010308DF831009DF8320046
:1001A00020F00600801C20F0080040F011008DF8BF
:1001B000320007A8FCF7F9F90DA807900CA80890E1
:1001C000ADF824401720ADF82640ADF828000B9478
:1001D000A88805F1100307AA6946A2DF0FB030BD59
:1001E00030B58FB005461C216846FCF7DEF90024C7
:1001F0009DF80000019440F004008DF80000039485
:10020000049405940694A8798DF8360041F2325092
:10021000ADF834000C949DF83000142120F0FF005C
:100220008DF830009DF8310020F00F00401C20F0C8
:10023000F00010308DF831009DF8320020F00600FB
:10024000801C20F0180040F001008DF8320007A853
:10025000FCF7ABF90DA807900CA80890ADF8244066
:100260001420ADF82640ADF828000B94A88805F1BD
:10027000080307AA6946A2DF0FB030BD70B58EB083
:100280000E4605461C216846FCF78FF900249DF8B0
:100290000000019440F002008DF8000003940494E3
:1002A00005940694A8798DF8360041F23450ADF8E3
:1002B00034000C949DF83000142120F00F00401CF5
:1002C00020F0F00010308DF830009DF8310020F063
:1002D000FF008DF831009DF8320020F00600801CF0
:1002E00020F0180040F001008DF8320007A8FCF75C
:1002F0005CF90DA807900CA808900220ADF8240026
:10030000ADF82640ADF828000B96A88805F120032B
:1003100007AA6946A2DF0EB070BD00003EB50446D4
:100320001F48017848F20800002930D084B32178B2
:1003300000292CD11B4900250968002927D0A17864
:10034000072929D2184AC1EBC10002EB8000807E48
:10035000FF2821D012486A46103001F09FFD002886
:1003600015D160230422694602A801F053FE0299C8
:10037000491C0CD0602304220C49684601F060FF40
:10038000002804D1084AA1781C3A42F821503EBD09
:10039000FFE748F20E00FAE748F21000F7E7000026
:1003A00088210020C02A0020B02900207C320200D1
:1003B0003EB50C4625490A7848F208015AB38A1D11
:1003C00018B114B1027832BB01E010463EBD204A9C
:1003D000126802B3817807291FD21E4BC1EBC102FC
:1003E00003EB8202927EFF2A17D01A4AA3681C3AB6
:1003F000B3B142F82130817814486A46103001F0D8
:100400004DFD0028E2D160230422694602A801F0D4
:1004100001FE48B116E008463EBD48F210003EBD60
:1004200052F82110A160E6E70298401C0AD064232C
:1004300010226946A06801F0EDFD0028EFD1029975
:1004400061603EBD48F240003EBD000088210020B2
:10045000C02A0020B0290020FEB505462D480C46D4
:10046000017848F20800002924D0811D1DB314B37F
:10047000A26802B3297800291CD1274909680029FC
:1004800018D0A978072918D2244BC1EBC10203EB7D
:100490008202927EFF2A10D06A7803F5827302EB03
:1004A000420203EB8202927A120703D560680428A5
:1004B00006D20720FEBD0846FEBD48F21000FEBD74
:1004C0001448174E6A46103001F0E8FC0028F6D1B7
:1004D00060230422694602A801F09CFD18B9029825
:1004E000401C00D00F4E60230422211D6846B047F7
:1004F0000028E4D1642310226846A16801F0A0FE20
:100500000028DCD1054BAA781C3BA16843F82210D7
:10051000FEBD000088210020C02A0020B029002054
:1005200071210200412202000A4A137848F20802AF
:100530006BB1931D19B110B1007840B901E01846B4
:100540007047054B1B6813B10870002070471046B8
:100550007047000088210020C02A00202DE9F04FBC
:10056000054693B0FA48FF24079400784FF0000A3C
:10057000002853D0F74E306800284FD001A800F073
:1005800095FA08B1FEF71CF9281D05902C20ADF84E
:1005900018000027FF208DF806008DF804700097E2
:1005A000EC4C28880C3CBB4610280FD0A8886A4623
:1005B0000221FFF7CBFB48B9009800EB400104EBA8
:1005C0008101C97A8DF806108DF80500DFF8849353
:1005D0002888A9F14C091321A9F1C408192874D05D
:1005E00010DC10281DD011285DD013286ED01428DF
:1005F00014D1009800EB400004EB8000C07AFF2883
:100600007CD099E0D44A1A2876D01E2875D052287A
:1006100004D1B07A52F8201001A8884713B0BDE881
:10062000F08F4FF6FF766A4601213046FFF78EFBCA
:100630000028F3D10099022201EB410004EB800075
:10064000827211228DF810208DF80510A988018181
:10065000A9680160A9898180A97B8171E87DC107B2
:1006600008D0BB49083101EB50000078FF2809D0C1
:10067000079007E0324607A905F10800FFF76CFC78
:1006800000280FD10099079801EB410104EB81018B
:10069000C8728A7A42F008028A728DF8060001A8B0
:1006A000FEF7D2FE6FE1009800EB400004EB800102
:1006B000887A20F002008872010708D500060FD55D
:1006C000002101A8FFF7E8FB0AE0BDE043E09DF848
:1006D0000600FF2804D001F095FBFF208DF80600EE
:1006E0000099102001EB410104EB81018872122076
:1006F0008DF8100047E101E0FDE042E12A8A07A9F8
:100700000020FFF729FC78B90098079900EB40001A
:1007100004EB8000C172827A42F0080282728DF886
:10072000061001A8FEF790FE009800EB400004EBD5
:100730008000C07AFF2804D00098C0EBC00109EB0C
:10074000810A00980023C0EBC00108EB8102A88851
:10075000514686DF62E700988DF8101000EB4000EC
:1007600004EB8001887A40F004008872CA7AFF2A7C
:100770000BD040F040008872162000238DF8100046
:10078000A8881A4685217FDF33E00DF11C0C48F262
:10079000430300204FEA0802C0EBC00802EB8808C0
:1007A00098F81A80B8F1FF0F26D0401C0728F3D321
:1007B0004FEA03070099CDF830B001EB410304EB99
:1007C0008303DB7AC3EBC30302EB8302CDE90D2B7A
:1007D000C1EBC10209EB8201CDE9081BCDF83CB0A9
:1007E000CDF828B0CDF82CB0321DA88808AB002178
:1007F0007FDF0028AED1C6E00B78022B12D0C0EB11
:10080000C00302EB83034FF0FD0883F81A80D1F890
:100810000080C3F81080B1F80480A3F814808979AF
:10082000997505E0C0EBC00102EB8101FE238B76D8
:100830008CF800000099079801EB410104EB81015D
:100840008DF80600C872B5E7707A20F0010070726A
:10085000009E06EB460304EB8300817A21F004023C
:10086000827214218DF81010297A31B1510603D407
:10087000C07AFFF795FB2F7A85E0697A490739D569
:100880009DF80610FF297ED042F0080282726A7B32
:10089000920707D5C1EBC10508EB8502957E25F0CF
:1008A00001059576C27AFF2A6DD014F82320022A1A
:1008B0000ED0C1EBC10208EB820102680A61828896
:1008C0008A8280798875887E20F0020088760DE023
:1008D000C6EBC60209EB8200C1EBC101428A08EBFC
:1008E00081000283817E21F001018176012101A82E
:1008F000FFF7D2FA47E0287A0121B1EB101F2DD182
:1009000000F00F00012829D1009800EB400104EB12
:100910008101897A090721D50E4900EBC0003039E1
:1009200001EB80001A210830FBF73FFE16208DF8FE
:100930001000009800EB400004EB8000817A41F049
:1009400060018172707A40F00200707217E000005E
:1009500088210020C02A0020A0320200009800EB6D
:10096000400004EB8000817A41F080018172152003
:100970008DF81000B07A52F8201001A8884700279F
:1009800001E08DF810103A4604A901A8FDF724FFF4
:100990009DF8100012287FF4DDAE009800EB4001B6
:1009A00004EB8101897A01293FF4D4AEFFF7E4F921
:1009B00034E600002DE9F043064629480C4689B08C
:1009C000017848F2080000293FD0811DF6B3ECB34E
:1009D0003178002939D1234900250968002934D00C
:1009E000B078072838D2204FC0EBC00007EB80005A
:1009F000807EFF2830D0E560B07807F58E79C0EBB7
:100A0000C00007EB8000C4E90405E846A56014486F
:100A1000C4E90089B17807AA103001F03FFA002834
:100A200013D11C231A4607A9684601F0F3FA0028DF
:100A30000BD1E560B178C1EBC10107EB8101C4E9DD
:100A40000415C4F80080C4E9019500E002E009B093
:100A5000BDE8F0830846F8E748F21000F5E700002B
:100A600088210020C02A0020B029002030B504468B
:100A700011B10878A0B902E048F20E0030BD0A4872
:100A80000023006860B1084AFF200C3A887015897D
:100A90000520A542F2D14B70D07A8870002030BD7D
:100AA00048F2080030BD0000C02A002030B1FF210C
:100AB000017041708170C1700020704748F20E00D3
:100AC000704700002DE9FF4105003AD02B48002473
:100AD0000460447284722046FFF74EF927482421AF
:100AE0003038FBF762FD0026DFF89480FF273046A0
:100AF00001F088F908F80670761C072EF7D37420E9
:100B0000ADF804000720ADF806001E481C4900900F
:100B10000831684601F0D2FA00280FD1184E0120A2
:100B2000083E3070287878B1BDF80400BDF8061092
:100B3000484381B206F1100001F0DAF904B0BDE8D3
:100B4000F08148F20E00F9E70F4F00250C48A9B2DA
:100B500002AA083001F0A2F948B9C5EBC50007EBBD
:100B6000800000231C2202A901F054FA08B134705D
:100B7000E4E76D1C072DE9D3E0E70000C02A002060
:100B800090210020090C0200B02900201B4A137894
:100B900048F20802F3B1931D18B111B10378CBB933
:100BA00001E018467047164B1B689BB1837848F2EA
:100BB0000502FF2B10D01348C3EBC30300EB8300E7
:100BC000837E9B0706D402690A60828A8A80807DC0
:100BD00088710022104670474078FF28FAD000EB59
:100BE000400307480C3800EB8300837A9B07F1D55C
:100BF00002680A6082888A808079E9E7882100207B
:100C0000C02A0020B02900202DE9F04F80465C4822
:100C100091B01E4600681A9F93468A46002870D0FD
:100C2000742F6ED86846FFF741FF08B1FDF7C8FD85
:100C300000248DF800408DF80440CDE90576254666
:100C4000A9B20FAA4F4801F029F928B908220FA923
:100C50004046FBF7BCFCE0B16D1C072DF0D300BF94
:100C60009DF80200FF287FD04FF020094FF0400C84
:100C700004ADBAF1030F0FD0434A1C27B11AB1FBE0
:100C8000F7F1012307291AD20295BBF1000F0BD00F
:100C900010E08DF80250E3E7742F02D08DF804C005
:100CA00065E08DF8049062E0364983401039496868
:100CB0000B4259D002F0CEF98DF8049045E030494E
:100CC0004C39A6EB0108B8FBF7F7DFB101F11C02C4
:100CD000B11A2427B1FBF7F702F124013FB32B4AE5
:100CE0008DF804C0964242D0A1F5907252F82020AF
:100CF000B24239D10295C97A884226D18DF8014095
:100D000023E031E01E4B02958DF804908DF80140F0
:100D10000C330791CDE90B439DF80210C1EBC101E3
:100D200002EB8101089107A9CDE905910DE0302082
:100D30008DF801408DF804008DF80330887A800723
:100D400003D424211046FBF730FC9DF80400BAF1CF
:100D5000020F11D040F002008DF804005A4601A99C
:100D600068460295FDF738FD11B0BDE8F08F9DF89B
:100D7000040040F00300EFE740F00100ECE7000062
:100D8000C02A002098210020B02900207C320200D7
:100D9000174A10B512785AB148F20E0258B151B143
:100DA0000B6843B1134A14683CB148F2040010BD0B
:100DB00048F2080010BD104610BD0E4C13602C3CCC
:100DC000D1F8053023634B7A84F834300979917275
:100DD00023F0050141F002011172D17921F00401E3
:100DE00041F00301D17100210170084610BD0000DF
:100DF00088210020C02A00200E4910B54A788C783E
:100E00000023A24212D0521CD2B24A70022A00D150
:100E10004B70084A4B78183252F823200260086958
:100E2000104420F07F400861012010BD03600020C5
:100E300010BD0000C4210020002808D0112801D0D6
:100E4000FDF7E6BC0248416841F008014160704787
:100E5000A021002010B51F4C2046217840680129B0
:100E600010D002292DD0032932D1000725D4606982
:100E7000401C606100F0ACFAD8B12078BDE81040A9
:100E800001F0A4BC000718D41348A28B017801EB31
:100E9000810100EB8100C188891A0904090CC18015
:100EA00003D0BDE8104001F007BEBDE81040FEF7DA
:100EB00063BEBDE81040FEF7FBBDBDE8104000F08A
:100EC00051BC0648617850F82100BDE81040004749
:100ED00010BD0000A02100205C2B0020C4320200C5
:100EE00028DFFFF7A9BF29DFFFF7A6BF20B103491D
:100EF000496D01600020704703207047382E0020A4
:100F00000EB517A19DF8080020F00F00401C20F03E
:100F1000F00010308DF808000F2202A87CDF08B125
:100F2000FDF74EFC40F2413078DF08B1FDF748FC98
:100F30000020009001904FF4A071ADF80400ADF8CE
:100F400000104FF4C8704FF40271ADF80600ADF810
:100F5000021068467ADF002801D0FDF731FC0EBD93
:100F6000436F6E74726F6C6C65725F54657374005E
:100F70000020704700207047002070472DE9F0479F
:100F80004178DFF8A490054601EBC10209EB82002D
:100F9000002401EB410109F1240A43682746264653
:100FA0000AEB810163B191F80AC05FEA0C6807D5CA
:100FB0005FEA4C6C04D459F8226000F108049FB237
:100FC0000889D04633463A462146A9DF48F241090E
:100FD0000B281CD000B14846012E16D168784FF678
:100FE000FF7200EB400008EB80000C210089A7DFB6
:100FF00000280AD0A0F54051023913D0082811D09A
:10100000891E0FD011280DD00020BDE8F087687828
:10101000012300EB400008EB80003A46008921469E
:10102000A9DFDBE74846F0E7902A002070B50C46C0
:10103000014660780A4D00EBC00005EB80003823C4
:10104000242200F0E7FF002808D1617801EBC101FC
:1010500005EB81014A68521C00D14A6070BD000056
:10106000902A00202DE9F04188B0804603271A20FD
:10107000ADF81C0048782A4E00EB400006EB8000DB
:101080000D4600893B4607AA6946AADF28BB687857
:10109000A6F1240400EBC00004EB8000BDF81C2086
:1010A00069460830FBF793FA0028687807D000EB10
:1010B000C00004EB8001496881B11A4E0FE000EBDB
:1010C000400106EB8101897A890724D400EBC00036
:1010D00004EB80002421FBF768FA1CE0124E44F870
:1010E00020706878BDF81C2000EBC00004EB800085
:1010F00069464260687800EBC00004EB800008306D
:10110000FBF72CFA6878382300EBC00004EB800171
:1011100024224046B04708B00020BDE8F08100001E
:10112000B42A00204122020071210200FFF726BFED
:10113000FFF77CBFFFF796BF70B51B4C2079000707
:101140002DD41A48017801EB810100EB81052E694D
:1011500000F02BFFE9882A89761E11443144B1FB47
:10116000F0F02169002549B16169814206D1E5604D
:10117000606840F001006060002008E000F028F99D
:1011800010B10220E56002E0206920B10320BDE833
:10119000704001F0D5BCBDE87040FEF789BCBDE8E9
:1011A000704001F0C3BC0000A02100205C2B002097
:1011B000114810B501780A22491C01704178491C78
:1011C00041700E488168491C81600B49A1F15000B3
:1011D000FEF7A2F8002C0ED0082C0CD0A4F540503D
:1011E000043808D043F20140844204D02046BDE8D0
:1011F0001040FDF7E5BA10BDA42700208020002094
:1012000070B594B00024054607949DF81C000E4666
:1012100020F00F00401C20F0F00010308DF81C0072
:10122000087A8DF81D009DF81E001C2120F0060094
:10123000801C8DF81E006846FBF7B7F99DF800008A
:10124000019440F012008DF8000007A8CDE9044099
:1012500001208DF84E0003944FF6E9700694ADF826
:101260004C000D94707A8DF83400B07A8DF835000A
:101270009DF83600142120F00600801C20F0180094
:1012800040F001008DF8360008A8FBF78EF913A88E
:1012900008900DA809900EAA0021284600F011F828
:1012A000ADF828001420ADF82C000EA8ADF82A40A7
:1012B0000C90288905F10A0308AA6946A2DF14B038
:1012C00070BD2DE9F041904600270446CAB2FF29BF
:1012D00007D9090A012788F8012088F80210032598
:1012E00002E088F801200225B4F84E0008B147F06A
:1012F0001007002618E0A81C14280BD9B4F84E00DB
:1013000004EB4601801B420004F126002631FBF766
:1013100025F90DE004EB460108EB0502C98C1170BC
:10132000090A5170C5B2761CB4F84E00B042E2DC36
:1013300034F84E0F801B208088F800702846BDE8E6
:10134000F0810000F8B51A4C207800282ED02069D2
:1013500028B10026E06820B1002526B110E0012662
:10136000F8E70125F9E7684652DF052803D020B1E8
:10137000FDF726FA04E0012602E02169009888477B
:1013800085B96088ADF800006946A06861DF05286E
:1013900003D020B1FDF714FA04E0012502E0D4E9FE
:1013A00002018847002EDED0002DD6D0F8BD000007
:1013B000FC210020054940880A88904204D34988CE
:1013C000884201D801207047002070472421002066
:1013D00070B50E48017801EB810100EB81042569AD
:1013E00000F0E3FDE18822896D1E11442944B1FB20
:1013F000F0F1074842698A4205D301D1006910B172
:101400004FF0000070BD4FF0010070BD5C2B00205C
:10141000A0210020800701D00020704701207047E4
:1014200030B51488E51C9D4201D90C2030BD022541
:101430000D5513881C245B1C9BB21380CC5413885D
:101440005B1C9BB21380012807D0022807D0032819
:1014500007D0042807D0072030BD002004E0012079
:1014600002E0CD5401E00320C8541088401C1080D5
:10147000002030BD2DE9F047DFF8ACA0DAF80C0011
:101480009AF8004080469AF80460DAF80890DAF892
:1014900010703AE009EBC4052A7833E002EB420110
:1014A0006B68521C03EBC101AB78D2B2934200D1FE
:1014B00000220B78022B02D0032B23D11FE0D1F89E
:1014C00004C00346014603E0614503D00B46C969E9
:1014D000C1B1F9E7B1B18B4205D1C06918B9134F59
:1014E0000126BE600027D1F800C0C969D96149B1A1
:1014F0000B6863440B6005E00174C06900E00021E3
:101500000028F9D169789142C8D1641EE4B2C1D2F1
:10151000CAE903078AF80460404502D00120BDE80B
:10152000F0870020FBE70000C421002000100140EC
:101530002DE9F04705462F48002680460778D0F869
:101540000C904BE0D8F8080000EBC70440E002D054
:101550002846ED691EE02078616800EB4002401CDF
:10156000C0B201EBC2012070A278904200D1267077
:101570000A784868012A2DD1027C5ABB8A684260E9
:10158000CA6882600A69C2604969816198F804107A
:1015900001B146604268D8F81030DFF85CC0D11A5B
:1015A00021F07F41614502D28268114406E0991A18
:1015B000826821F07F418A4202D9511A016000E01D
:1015C00006604660012186600174C66101F03CFB43
:1015D000002DBCD1207861788842BCD17F1EFFB23B
:1015E000B0D2D8F80C10494502D00120BDE8F087F0
:1015F0000020FBE7C4210020FFFF7F00BAB080215C
:1016000001A8FAF7D2FF0024ADF8E44038A8FEF7AD
:10161000C7FB01F079FBFDF7D9FE9DF8E000FEF76E
:10162000E5FCFFF76DFC382121A8FAF7BEFF022088
:101630008DF8840001258DF8865006218DF88710DD
:10164000ADF894004048269024212FA8FAF7ADFF6A
:1016500064203390B4208DF8C85034903B4B2FAAAF
:101660000021009421A8FDF723FA08B1FDF7A8F89E
:1016700000F092FF1C2121A8FAF797FF4FF42030C9
:10168000CDE921404FF47020239003208DF8900085
:101690002F48C089ADF892002E4826902E482790FA
:1016A0008DF8944021A8FDF7E3FB08B1FDF788F819
:1016B000274A0A21B03A0820FDF7EEF808B1FDF7F5
:1016C0007FF8FBF7A5FB0620FBF74AFF0020FBF79E
:1016D00093FE1D4C203C6078FCF72AF9FCF71AF9C0
:1016E0001E48257000224FF480310068FDF744F950
:1016F00008B1FDF765F80320FDF7CAFA08B1FDF758
:101700005FF8174CFDF7B8F848DF08B1FDF758F857
:101710002068000C10F0010FF4D0FBF797FB0228B3
:10172000F0D1FBF7F9FBFBF7F7FBFBF78FFB022888
:1017300004D00128E6D1FBF7EFFBE3E739A901A8C4
:10174000FBF78AFBDEE70000A0200020A31C0200BC
:1017500054270020C91C0200EDFC01000C320200DD
:10176000100500500348416821F0080141600078ED
:1017700001F02CB8A021002070B5144682880E46D6
:1017800005462088111D0144921C994201D8FE2A69
:1017900001D90C2070BD521C32542088FF21401CFE
:1017A00080B2208031542088401C80B22080811972
:1017B000288801F049FC2188084480B22080AA884A
:1017C00042B1A96841B13044FAF7C8FE2088A9881F
:1017D00008442080002070BD072070BDF8B50E467B
:1017E000017814460546012901D1687830B1208876
:1017F000821C9A422DD8012902D006E00720F8BDAC
:1018000069780144891C994223D8181A801E87B22E
:10181000ADF800702188B01C084469467DDF0028BF
:10182000EDD12878022805D1BDF80010B94201D8C1
:1018300009210AE00821012805D16878B84202D8B8
:10184000ADF8000001E0ADF80070BDF80000FE2822
:1018500001D90C20F8BD2288401CB0542088401CBF
:1018600080B2208031542088401C2080BDF80010B8
:10187000084420800020F8BD0020704700207047F9
:101880000020704731B540F2E73404E0401E00907C
:101890002046FAF7BFFD00980028F7D138BD490768
:1018A000090E002806DA00F00F0202F1E02282F8A9
:1018B000141D03E000F1E02282F8001400F01F0282
:1018C000012191404009800000F1E020C0F8801221
:1018D000C0F8001170470121B1EB507F01D1012008
:1018E00070470020704700002DE9FC5F804640797A
:1018F000DFF80CB10C460BEB4017397E11B1082014
:10190000BDE8FC9F14B93F4901EB00143A60207B0D
:1019100001250128DFF8F0A0207804D805FA00F0AE
:10192000CAF8000001E000F081F92178A946890099
:1019300001F1A041C1F8005765784FF0FF36FF2D47
:1019400007D009FA05F0CAF80000284600F055F95A
:1019500000E03546A0784FF0000AFF2809D00022A9
:1019600006465346CDF800A01146CDF804A000F07D
:1019700020F9E078FF2804D000F058F9E07800F072
:101980003CF998F80520E1780BEB42108176D8F805
:1019900000002178C0F80815C0F80C55C0F8106593
:1019A000A168C0F82415227B617B01B10121012AC5
:1019B00004D0022A05D0032A08D105E041F0020133
:1019C00004E041F0040101E041F00601C0F85415C3
:1019D0006179C0F8C015396811B14221C0F804130B
:1019E0000721C0F80015386820B1217998F9040062
:1019F000FFF755FF87F819A087F8189000207FE7B8
:101A0000D02D0020D83202000C0500501FB5069CD6
:101A100000918DF8042002938DF80C400022694655
:101A200000F002F804B010BDF0B413460C46417942
:101A3000124A02EB41114A7E12B1F0BC11207047EC
:101A40000A6801251AB113F0140F00D14D7694E8FD
:101A5000C410083181E8C41011F8152F22F00302D8
:101A600001F81D298A7EFF2A02D09540044A15609C
:101A700000682246F0BC00F01BBF0000D02D002003
:101A80000C05005030B54FF4803405688C4013B11C
:101A9000C5F8044301E0C5F80843006800EB810085
:101AA000C0F8402530BD0000016801220A600079BD
:101AB000034A00EB400002EB8000022101727047F4
:101AC000F02D0020F0B40468049E40F20115D4F813
:101AD00000728D40AF43C4F800720468D4F800521D
:101AE0001D43C4F800523346F0BCFFF7CBBF0000E3
:101AF0002DE9F041044600790D46234B00EB4001EF
:101B000003EB8106317A11B10820BDE8F0810AB1FA
:101B100015B104E00720F8E71C4901EBC00532606D
:101B200068687060002003464FF4A07706E000BFAD
:101B3000226807EB80015350401CC0B2617981429A
:101B4000F6D82068E978000B40B2FFF7A8FE2068BD
:101B50006978D0F8042561F30102C0F804252068F3
:101B6000A978D0F8082561F30102C0F8082520689B
:101B70002978D0F8102561F30302C0F81025012060
:101B800030720020C1E70000F02D0020E832020092
:101B900030B541EA4201DDE9034541EA83018000B5
:101BA00041EA042100F1A04041EA0541C0F80017D4
:101BB00030BD30B541EA4201DDE9034541EA830128
:101BC000800041EA042100F1A04041EA0541C0F84B
:101BD000001730BD1CB500220B4600921146019241
:101BE000FFF7D6FF1CBD1CB5002100910B4601225A
:101BF00001911146FFF7CCFF1CBD1CB500210091DF
:101C00000B46012201911146FFF7D3FF1CBD800056
:101C100000F5E06000F1A040026822F4403202606A
:101C2000026842EA014101607047000001218140E1
:101C3000014801607047000008050050034908B5DD
:101C40000844002101600068009008BD0060004069
:101C500002494058012800D0002070470060004031
:101C60004058002800D0012070474058002800D07C
:101C700001207047D0F80403084000D001207047CD
:101C80004058002800D00120704710B585B00020D2
:101C90006B4602E00C5C1C54401C9042FAD305B029
:101CA00010BD10B550B103280CD10220FDF7EEFC99
:101CB000002807D0BDE81040FCF782BDBDE8104009
:101CC00000F070BD10BD00000078002807D1044866
:101CD0003B21C08876DF002801D0FCF771BD70473A
:101CE00080200020F0B58BB001274FF0020E054692
:101CF0008DF80CE08DF812700889ADF81400488951
:101D0000ADF8160001F10C00002608960690ADF81B
:101D100020E007A8ADF8226009900C46A98A28881F
:101D200008AAA5DF18B1E96AC9B1884717E09DF88C
:101D30001C0010F0010F12D0ADF81060288803A924
:101D4000A8DF002812D1217B04F10D00092943D21C
:101D5000DFE801F0420E1D2326282A402C0040F225
:101D6000FD10ADF81000288803A9A8DF0BB0F0BD66
:101D70008DF800600DE006221DE000BF8DF80870B0
:101D80000190AA6A6946284690470020EEE78DF840
:101D900000706289022AF1D2EDE78DF800E0F0E7E9
:101DA000032012E0042010E005200EE060890328E3
